:020000040800F2
:1000000058100020C1160008132900089516000892
:1000100095160008951600089516000800000000C7
:100020000000000000000000000000005513000860
:100030009516000800000000D1120008D51B00082A
:10004000F1130008F1130008F1130008F113000880
:10005000F1130008F1130008F1130008F113000870
:10006000F1130008F1130008F1130008F113000860
:10007000F1130008F1130008F1130008F113000850
:10008000F1130008F1130008F1130008F113000840
:10009000F1130008F1130008F1130008F113000830
:1000A000F1130008F1130008F1130008F113000820
:1000B000F1130008F1130008F1130008F113000810
:1000C000F1130008F1130008F1130008F113000800
:1000D000F1130008F1130008F1130008F1130008F0
:1000E000F1130008F1130008F1130008F1130008E0
:1000F000F1130008F1130008F1130008F1130008D0
:10010000F1130008F1130008F1130008F1130008BF
:10011000F1130008F1130008F1130008F1130008AF
:10012000F1130008F1130008F1130008F11300089F
:10013000F1130008F1130008F1130008F11300088F
:10014000F1130008F1130008F1130008F11300087F
:10015000F1130008F1130008F1130008F11300086F
:10016000F1130008F1130008F1130008F11300085F
:10017000F1130008F1130008F1130008F11300084F
:10018000F1130008F1130008F1130008F11300083F
:08019000F1130008F11300084F
:1001980053B94AB9002908BF00281CBF4FF0FF31E6
:1001A8004FF0FF3000F00CB8ADF1080C6DE904CE4B
:1001B80000F008F8DDF804E0DDE9022304B0704738
:1001C800704700BF2DE9F04786468C460846089ED2
:1001D800154674461946002B40F0C2808542B2FA93
:1001E80082F245D94AB1C2F1200300FA02FC2EFA84
:1001F80003F3954043EA0C0C94404FEA154EA8B21D
:10020800BCFBFEF8230C0EFB18CC08FB00F943EAF4
:100218000C43994528D9EB1808F1FF3704D29945C2
:1002280002D9A8F102072B44A3EB0903A4B2B3FB3C
:10023800FEFC0EFB1C330CFB00F044EA0344A04216
:1002480014D92C190CF1FF3304D2A04202D9ACF115
:1002580002032C44241A43EA07401EB1D440002369
:1002680034607360BDE8F0874746DDE76346F1E731
:1002780092BB431B01214FEA154EAFB2B3FBFEFC04
:10028800200C0EFB1C330CFB07F840EA034398458F
:1002980062D9EB180CF1FF3004D2984502D9ACF1C1
:1002A80002002B44A3EB0803A4B2B3FBFEFC0EFB35
:1002B8001C330CFB07F744EA0344A7424ED92C1918
:1002C8000CF1FF3304D2A74202D9ACF102032C444B
:1002D800E41B43EA0040C0E7C2F1200320FA03F11F
:1002E800954090402EFA03F303434FEA154EAFB200
:1002F800B1FBFEFC0EFB1C10190C0CFB07F841EAC5
:100308000041884504FA02F422D969180CF1FF303B
:1003180004D2884502D9ACF102002944A1EB0801B6
:100328009BB2B1FBFEFC0EFB1C110CFB07F743EA6A
:1003380001439F420ED9EB180CF1FF3104D29F42C2
:1003480002D9ACF102012B44DB1B41EA004192E7E0
:100358006046E3E76146F7E76046A3E76346B7E729
:10036800834206D916B9002108467BE7C6E900E0B2
:10037800F9E7B3FA83F78FB9834201D3724508D8F6
:10038800BEEB020460EB030301209C461EB900216A
:1003980068E73846FAE7C6E9004CF8E7C7F1200CE9
:1003A800BB4022FA0CF41C432EFA0CF120FA0CF391
:1003B800B84001434FEA14490EFA07F5B3FBF9F8C0
:1003C8001FFA84FE09FB18300B0C08FB0EFA43EAEF
:1003D80000439A4502FA07F240D9E31808F1FF30C2
:1003E80004D29A4502D9A8F102002344A3EB0A03D8
:1003F80089B2B3FBF9F809FB183308FB0EFE41EA92
:1004080003418E452CD9611808F1FF3304D28E457B
:1004180002D9A8F10203214443EA0040A0FB029854
:10042800A1EB0E014145CE46434602D306D14D45C8
:1004380004D2B9EB020E68EB04030138002EA6D0F3
:10044800B5EB0E0261EB030101FA0CFC22FA07F38B
:100458004CEA0303F940C6E9003198E74046C5E78E
:100468004346D9E7000000002DE9F04F9FB08246CF
:10047800039116461C460025307810B9284600F02E
:1004880085BD731C2528069306D00399D0470028FC
:10049800C0F27C85013527E21822002110A802F05D
:1004A80056FA7378252B7DD00023701C98469E46FB
:1004B8009C461F46014610F8012B2B2A00F0A1800C
:1004C80000F29880202A00F09F80232A00F09F8065
:1004D8002BB19DF8483043F040038DF84830B8F10F
:1004E800000F05D09DF8483043F020038DF84830C0
:1004F800BEF1000F05D09DF8483043F010038DF889
:100508004830BCF1000F05D09DF8483043F008038F
:100518008DF848302FB19DF8483043F004038DF82A
:1005280048309DF8483003F04400442803D16FF365
:1005380086138DF848309DF848302A2A43F0800306
:100548008DF848307FD19DF8492042F001024B1CBC
:100558008DF849201A782E2A9DF849200CBF0121D0
:10056800002161F341028DF8492078D15A782A2A6E
:100578006ED0013300224FF00A0C194611F8010B16
:10058800A0F13007092F40F2AD809DF84810149271
:10059800C1F3400040EAD2700A4660F341028DF888
:1005A80048205CE0B21C06928DF84B309DF849302B
:1005B800D90740F1508154F8042B0492002A08DA34
:1005C8009DF8482042F004028DF84820049A5242CF
:1005D80004925A0740F1478154F8047B002F80F2B7
:1005E80046819DF849306FF341038DF849304FF04B
:1005F800FF373CE12D2A0DD0302A7FF469AF012363
:1006080058E74FF0010C55E74FF0010E52E74FF055
:1006180001084FE701274DE70EFB0272303A034607
:10062800184610F8017BA7F1300CBCF1090FF3D97B
:1006380099428FD09DF848101392D20F62F341016E
:100648008DF8481086E70B4600224FF00A0EE7E7C0
:100658009DF8492042F004028DF8492002331A78A7
:100668006C2A5FD043D8682A49D06A2A63D04C2ABA
:1006780069D013F8012B0693782A8DF84B2000F2E5
:10068800A9806D2A6CD8692A00F2A480572A00F242
:100698008480412A04D0A2F14503022B00F29A80FB
:1006A8009DF84A3002F0DF020421A2F1410761F30C
:1006B80002037A429DF849108DF84A307A4162F374
:1006C800C7110A068DF84910CBB200F1C28003F0B9
:1006D8007802182A40F0AC806FF3C6038DF84930D1
:1006E80000239BE00CFB0202303A0B4645E7742AD4
:1006F80025D07A2ABDD19DF8492006210CE05A78E8
:10070800682A9DF8492006D1012161F3C6028DF8B7
:1007180049200233ADE7022161F3C6028DF8492072
:100728000133A6E75A786C2A9DF8492001D10421A3
:10073800EBE70321F0E79DF849200521ECE79DF858
:1007480049200721E8E7BDF8482022F4F04222F0CA
:10075800020242F4804242F00202ADF84820DFE78C
:100768006E3AD3B201229A4040F282431A429DF86F
:10077800493036D112F0240F5ED1D1072AD59DF821
:100788004A2003F07803A3F14000032161F3020239
:1007980043428DF84A20434140E0A2F15801C9B2D2
:1007A800012000FA01F111F4624F7FF479AF40F6AD
:1007B800010319429DF8493019D111F4043F09D0B9
:1007C8009DF84A2060F3020203F07803402B8DF86D
:1007D8004A2085D19DF8483043F001038DF8483010
:1007E8007EE79DF84A20022161F30202ECE79DF8BA
:1007F8004A10022003F0780360F30201402B8DF8C1
:100808004A1002BF9DF8481041F001018DF84810C8
:10081800632A7FF465AF003B18BF01239DF8482089
:10082800C2F340010B4363F341028DF84820BDE653
:1008380013F0380FCED153E79DF84A20032113F067
:10084800780F61F302028DF84A2014BF01230023B8
:10085800E4E70123E2E79DF94820002AB4BF139A90
:100868004FF0FF32B4E69F077FF5C1AE149F002317
:10087800CDE913339DF84A3003F00702042A9DF8A6
:10088800492007D1900705D49DF949100029ACBF2C
:1008980006270D2703F00703012BC2F3C30233D148
:1008A800D31E042B04D8DFE803F02146462121009B
:1008B8002368012A4FEAE371CDE910311CD19DF973
:1008C8004030D917CDE9103104349DF848300793EA
:1008D800990750D0069B03993246504601F0F1FF24
:1008E8000028C0F253830544069EC5E554F8043B2E
:1008F800D917CDE91031E8E7022AE5D119B243F357
:10090800C033CDE91013DFE7022B24D1D31E042B0B
:1009180004D8DFE803F0181010181800012A54F85A
:10092800043B4FF0000114D0022ACDE91031CCD19C
:100938009BB21093C9E7073424F00704F4E80201D6
:10094800CDE91001C1E754F8043B1093002311933B
:10095800BBE7DBB2CDE7042B08D1073424F007044A
:10096800D4E900010834CDE91001AEE7032BACD17E
:1009780054F8043BDDE79DF84BB0BBF1780FB3D8D2
:10098800BBF1570F49D8BBF1250F00F09180BBF19F
:10099800240FA9D9BBF1410F03D0ABF14502022ABC
:1009A800A2D8DDE91012002AC0F23681079B1E0783
:1009B80000F13581C3F300194FEA4919C2F30A500F
:1009C800C2F31302002840F02D8151EA020614BF39
:1009D80001260026D20242EA5152C902BBF1460F53
:1009E80040EA010E42EAE07C08BF4FF0660B5EEA7F
:1009F8000C0CCDE90C1200F09781002E40F04481D8
:100A08000D9A42F00042A0F2FE380D920020DDE976
:100A18000C1206464FF0050C50E1ABF158012029A5
:100A28003FF662AF01A050F821F000BFBF0B0008ED
:100A3800F1080008F1080008F1080008F1080008AA
:100A4800F1080008F1080008F1080008F10800089A
:100A5800AB090008F1080008430B0008570B000811
:100A6800AB090008AB090008AB090008F108000849
:100A7800570B0008F1080008F1080008F108000801
:100A8800F1080008F90B0008BF0B0008C50B0008A7
:100A9800F1080008F1080008BF0A0008F10800087A
:100AA800BF0B0008F1080008F1080008BF0B000898
:100AB80003995846EAE4002F109E3ADB394630463F
:100AC80001F031FF3718002E3FF40EAF4FF0000948
:100AD8009DF84A3013F01002059200F04C82023063
:100AE80013F04003DDF84C80089318BF149BCDF831
:100AF8001C80404418BFC018049B002B40F356824A
:100B08009DF848201B1A04935307C2F3800B00F189
:100B18004D82500640F13D82B9F1000F07D003998C
:100B28004846D0470028C0F231820135D9463022E4
:100B380030E2304601F0F0FEC4E7109B8DF85C30DF
:100B48004FF000090DF15D0717AE0120C0E7079BC4
:100B58001A0758BFC3F30019DDE9102354BF4FEA41
:100B680049194FF02B09002B06DA524263EB430375
:100B7800CDE910234FF02D090DF175030093DDE940
:100B8800100117AB12AA01F056FE0646002F0CDB27
:100B98009DF848200DF175039B1B6FF386129F4249
:100BA8008DF8482001D9FB1A1393002E3FF49CAE10
:100BB8000DF1750756E04FF00009DDE710980028A1
:100BC80000F0D4810DF17503009312AA17AB002130
:100BD80001F031FEBDF84A3003F0EF0343F4F0436F
:100BE80043F010030646ADF84A304FF00009CDE750
:100BF800109B072A3FF678AEDFE802F00C04060CDB
:100C080008080C0C1D706FE61D806DE6EA17C3E935
:100C1800005269E61D6067E64FF02D09CEE64FF0F9
:100C28002B09CBE640F2FF76B0422AD10A43ABF15A
:100C380041031ED11A2B35BF492369234E216E214A
:100C480034BF462266228DF85C309DF848308DF816
:100C58005D106FF386138DF85E208DF848300DF126
:100C68005F0717AEB81BB9F1000F3FF431AF013081
:100C78002EE7192B8BBF6E234E23612141211A4683
:100C8800E1E70026A6E6013849185241002AFADAB7
:100C9800CDE90C12B4E6490841EAC2715208B2F132
:100CA800333F404608F10108F5D20CFB02FEA1FBD8
:100CB8000C1200F102087244013E012018F1020FE3
:100CC800E9DB08B1CDE90C12B8F1000FDDE90C2120
:100CD8002DDCC8F10400A0F1200C08F11C08C2406A
:100CE80001FA08F821FA0CFCC1400BF0DF0042EAD7
:100CF8000802472842EA0C023AD1F01C01DBB7424D
:100D08002BDAABF10203002F5FFA83FB7DDD9DF840
:100D18004800830607F1FF3777D43B1E18BF01232D
:100D2800059307F101082DE04FF000086EE6023246
:100D380041F100010CA8CDE90C2101F04DFDDDE9E0
:100D48000C2108F1FF38013692184941002908F1B1
:100D5800FF38F9DACDE90C21B6E79DF84830980656
:100D6800A7EB06074FD43B1E18BF0123059304E0E9
:100D78000023BBF1660F0593D3D117EB06084FF09C
:100D8800660B44D4B8F1100FA8BF4FF010089FEDC0
:100D9800B27B8DED0E7B10200B90DDE90E03B8F1D0
:100DA800000F37D1121841EB0301B1F1805F41D236
:100DB800CDE90C21079BBBF1660F03F0200240F040
:100DC800B480002E41DC30218DF85C10002A65D1FA
:100DD800002F40F3B2812E228DF85D2086B1724239
:100DE800BA42A8BF3A469DF84A101392002AA7EBC8
:100DF8000207D4BF0022012262F345118DF84A1080
:100E08000DF15E0839E00023B0E7002388E74FF0D2
:100E18000008BCE7400840EAC3705B08CDE90E0350
:100E28000EA8CDE9082108F1FF3801F0D5FCDDE96D
:100E38000821B2E7520842EAC1720CA84908CDE974
:100E48000C21013601F0C8FCB4E70DF15C080B99E0
:100E5800002909DD0BA90CA8079201F0D5FC013E79
:100E680008F8010B079AF2D113969AB9002F40F3AC
:100E780062812E2108F8011B0026002F17DD0B9A2E
:100E8800002A14DD0BA90CA801F0BEFC013F08F8EC
:100E9800010BF2E72E2208F8012BEDE72E228DF840
:100EA8005D20002EACD0002F99DC0DF15E08059B6B
:100EB800002B4ED1149747460BF0DF02452A23D169
:100EC800002EBABF76422D232B23632EC8BF642180
:100ED8007B70D1BFBA1CB6FBF1F3FA1C03F13000EA
:100EE800C8BF01FB13664FF00A01C8BFB87087F886
:100EF80000B0B6FBF1F3174603F1300001FB1363B2
:100F0800303307F8020B5370139B002B2CDC149B17
:100F1800002BD4BF002301239DF84A2063F38612D7
:100F280000238DF84A203B709BE60BA90CA807927A
:100F380001F06AFC079A8DF85C00302818BF06F1AA
:100F4800FF3612B9002F40F3F8802E228DF85D206D
:100F580056E7474608F1FF3817F8012C302AF8D031
:100F68002E2A08BF4746A7E70123D5E73C4F81460D
:100F78007E1F0520ACE51A0748BF0130B0E51046D2
:100F880009920399D0470028099A05DA1FB0BDE8ED
:100F9800F08F2022DDF810B0594600290BF1FF3BF5
:100FA800EDDC049BCDF810B02B445D1AB9F1000FAD
:100FB80005D003994846D0470028E7DB0135089B50
:100FC800002B7DD09DF94930002B28DBB3469BF8D8
:100FD8000000A0F13003092BD9460BF1010B46D9CB
:100FE8009DF84A30AE1B99064E4407D44246002A63
:100FF80008F1FF3840DC079B33449E1A99F800003B
:101008002E280AD10399D0470028BFDBB8F1000F7A
:1010180006F1010636DC09F101094D463DE0B1460D
:1010280099F800007028C84609F101091AD1AE1BC9
:10103800149D46443544AB1B002B39DC03993B46D1
:101048004246504601F03DFC00289FDB3044049E98
:10105800054606446AE000BF0000000000000008E2
:10106800F33300080399D0470028D9DA8EE70399AB
:10107800D0470028ABDA89E703993020D047002809
:10108800B4DA83E703993020D04708F1FF38BBE78B
:101098000399D0470028FFF679AF2878A0F13003EC
:1010A800092BA84605F10105F2D9A6EB0906BFE709
:1010B80003993020D0470028FFF668AF0136BAE719
:1010C8009DF84A30DA0601D41B0706D5039930206B
:1010D800D0470028FFF65AAF0135059B3BB103996D
:1010E8009DF84B00D0470028FFF650AF0135A844C3
:1010F80006E003993020D0470028FFF647AF0135B6
:10110800A8EB0503002BF4DC03993B463246504616
:1011180001F0D7FB0028FFF639AF284497E7039979
:101128002020D0470028FFF631AF0135731B002B74
:10113800F5DCFFF7D9BB1646B9E60DF15D08B6E652
:1011480008B50249024801F030FBFEE7BC3300084D
:10115800C9330008014B1B68184700BF0000002076
:1011680007B50B460021024600910348FFF77CF9BA
:1011780003B05DF804FB00BF5D1100080C4B1A6852
:1011880042F400721A601A6842F480621A604FF0E2
:101198001002EFF3118382F31288BFF36F8F83F38A
:1011A8001188BFF36F8F034B034A1A600020704702
:1011B800003C0240200000200024F40001491022D5
:1011C8000A60704710ED00E072B6404080F3118865
:1011D800BFF36F8FBFF34F8F30BF62B6BFF36F8F10
:1011E800704700BF40B2002807DB044A41090123C9
:1011F80000F01F00834042F82130704700E100E012
:1012080040B20028A8BF00F1604001F10101B8BF59
:10121800064B4FEA0111ACBF00F5614000F00F002A
:10122800C9B2B4BF195480F80013704714ED00E038
:1012380030BFFFF7FDBF00BF144A08B5144B22F0BA
:101248007F029A60BFF34F8FBFF36F8FD3F8882068
:1012580022F47002C3F88820D3F8882042F4A00250
:10126800C3F888204FF04042C3F83422BFF34F8FB1
:10127800BFF36F8F0023E1EE103A00F047FE01F054
:101288003BF900F00DFA00F081FE00BF00000008F5
:1012980000ED00E0094A0A4993680968D9660949D6
:1012A80098664B6843F080534B60002383F31188A2
:1012B800BFF36F8F9368D86E704700BFD8020020C5
:1012C800A033000800ED00E01E498A6882F8B1E00A
:1012D8004FF030001044EFF3098C80E8F01F1EF047
:1012E800100F03D102F1700080EC108A102080F3F7
:1012F8001288BFF36F8F144F4FF00066CA698A6077
:101308003E6092F9B1E0906E0023936680F31188F5
:101318001EF0100F03D00023E1EE103A03E002F1B3
:10132800700090EC108AEFF3148323F0040383F326
:101338001488BFF36F8F02F1300090E8F01F8CF330
:1013480009887047D802002004ED00E01EF0040F61
:101358000CBFEFF30880EFF30980816911F8021CD4
:101368000229FFD001B501F0C8FA01BD42F8203CBE
:10137800009B42F81C3C019B42F8183C0A49029B1E
:1013880042F8143C4FF0807342F8043C21F001010C
:10139800002342F8081C203A83664FF47D43026517
:1013A800C0F8B030704700BFCD2700080023E1EE39
:1013B800103AEFF3148323F0040383F31488BFF384
:1013C8006F8FBFF36F8F074B9860104681F30988C2
:1013D800002163B681F31188BFF36F8F00220023C9
:1013E80001F0F0F9D802002001B5EFF30580A0F173
:1013F80010004FEAC0000449014409C99847BDE8F4
:101408000140024908470000B82F000819140008D5
:10141800044B9968D869884203D003494FF0805239
:101428000A607047D802002004ED00E0134B9A6A66
:1014380012F0007F9A6A14BF1E201D2012F0807FD0
:101448009A6A18BF1F2012F4002F9A6A18BF212029
:1014580012F4802F9A6A18BF222012F4003F9A6A69
:1014680018BF232012F4803F9A6A6FEA02426FEA9B
:1014780012429A6218BF2420704700BF00ED00E0B6
:1014880010B5194B0246986A9C6A10F4805F14BF25
:101498001720162014F4006F9C6A18BF1820A405A2
:1014A80009D5986B986A000404D51AB19A6A22F48F
:1014B80000429A6219200C4B9A6A12F4806F9A6A59
:1014C80018BF1A20D2050CD49B6A13F4005F18BF0A
:1014D8001C20054A936A43F47F43936200230B70F0
:1014E80010BD1B20F5E700BF00ED00E010B51C4B58
:1014F8000246986A9C6A10F0100F14BF1120102041
:1015080014F0080F9C6A18BF1220A40709D5586B5D
:10151800986A000604D51AB19A6A22F080029A6283
:1015280013200F4B9A6A12F0010F9A6A18BF142001
:1015380012F0200F9A6A18BF1520D40658BF9B6A6C
:10154800074B9A6A920642BF5A6A22F400525A62BC
:101558009A6A42F0FF029A6200230B7010BD00BF26
:1015680000ED00E070B5444B5B689CB00646C3F3E1
:101578000803002585F31188BFF36F8F02F07F40C1
:10158800B0F17F4F11D102F00C0008280DD01007E0
:101598004CBF0E4601250022033B8DF80720032B84
:1015A80005D8DFE803F01E5C60592E46F3E70024F7
:1015B8009DF807309BB96822314602A801F0BCF9B2
:1015C800099B002D53D0C3F3080222B96FEA5323B5
:1015D8006FEA4323099302A9204601F08CF91CB055
:1015E80070BD254BDA6A9107E1D4DA6A002ADEDB9E
:1015F800DA6A5200DBD55A69B16942F480725A61DD
:10160800BFF34F8FBFF36F8F5A6931F8021C22F472
:1016180080725A61BFF34F8FBFF36F8F4DF602721E
:10162800914209D09A6AD2B242B10DF10701012064
:10163800FFF75CFF0446BBE73468B9E79A6A12F41F
:101648007F4F05D00DF107010120FFF719FFF1E7E2
:101658009B6AB3F5803FAAD3FFF7E8FEEAE70DF1EE
:1016680007010020E4E70DF107010020EDE723F46E
:10167800FF7323F00103ADE700ED00E0024A536970
:1016880043F010035361704700ED00E0EFF308806A
:10169800EFF3098101B57246FFF764FF01BD00BF92
:1016A800044800231021C2180133562B82F8001376
:1016B800F9D1704700E100E0102080F31188084854
:1016C8004FF40061401880F30988EFF31480022179
:1016D800084380F31488BFF36F8FFFF7ADFD000058
:1016E80018030020084B9B6883420BD1EFF3058356
:1016F80043B1064B5A6842F080525A605A6A22F443
:1017080000425A6200F098BED802002000ED00E0C6
:101718002DE9F0410E4E0F4F054600244FF0010809
:101728002B7818191F280DDC726908FA00F333EAC0
:10173800020207D1736157F830301BB107EBC002C2
:10174800516898476B780134A342E9DABDE8F08123
:10175800003C0140C8010020044B18440023013319
:10176800994200F8012BFADC704700BF2C000020DA
:1017780010B4064B064902460C68185601239340DC
:1017880023430B605DF8044BFFF72CBD2C000020B1
:10179800003C01401F2806DC034901220B688240F7
:1017A80023EA02030B607047003C014003292AD852
:1017B800DFE801F0020E141F134B012299688240E2
:1017C80021EA02019960D96821EA0202DA607047C9
:1017D8000D4B0122996882401143F3E70A4B01221D
:1017E800D96882401143D960996821EA02029A6057
:1017F8007047012303FA00F0034B9A6802439A608A
:10180800DA681043D8607047003C014010B5074BB8
:10181800044653F8300028B943F8341003EBC403E6
:101828005A6010BD6FF00F00FBE700BFC801002031
:10183800034B002243F8302003EBC0035A60704783
:10184800C801002010B5214B18680B68442B1446BA
:1018580028D82F2B05D8013B052B0DD96FF0850013
:101868001FE0A3F1300101228A4019490A4216D12A
:10187800402BF3D1400812E0052BEFD801A252F813
:1018880023F000BFB3180008C31800086518000843
:10189800A5180008A5180008A7180008002020604F
:1018A800002010BDA82BFAD0D8E700F095F84FF427
:1018B800C073C00858438008F1E700F08DF84FF472
:1018C800C073C0085843C008E9E700BF20000020E3
:1018D8001101100070B53C4C00F096F800F026FAA3
:1018E800A3683A4AC3F30313D35C20FA03F53848D4
:1018F800854201D200F048FA236843F4802323602C
:10190800236843F4803323602F4B1A689403FCD573
:101918009A6802F00C02082A17D19A6822F0F0029D
:101928009A601A68900707D41A6842F001021A6090
:10193800254A13689907FCD5234B9A6822F00302BD
:101948009A609A6812F00C0FFBD11F4C236823F0A1
:1019580080732360636823F4403343F48033636007
:10196800636823F0706343F00063636000F038F845
:10197800236843F08073236023689B01FCD5A36828
:1019880023F0F003A360A36823F0030343F00203EA
:10199800A3600D4CA36803F00C03082BFAD10C4E7E
:1019A800B54202D3304600F0EFF90A4B1E60A36837
:1019B80023F4E05343F48053A360A36823F4604303
:1019C800A360002070BD00BF003802409D340008AD
:1019D80000D8B805200000200048704700127A009F
:1019E800064A074953681940064B0B43536053682E
:1019F80023F4403343F48033536070470038024087
:101A08000080BFFF08604000064B1A6C42F080520D
:101A18001A641B6C82B003F080530193019B02B0DF
:101A2800704700BF0038024038B503690446586063
:101A3800084D284601F03EF940B16168AB680C31A9
:101A48001B682846984700EAE07038BD6FF012001E
:101A5800FBE700BFC82E0008F7B51746B7F5001F0B
:101A6800466802690C461D4624D101F0030204327F
:101A780092000F23934043EA9103DAB233490232CA
:101A880051F82220190C02EA134391FAA1F2B2FA92
:101A980082F2D340B2689A4209D12046FFF77AFE13
:101AA8002046FFF7C5FE00212046FFF77FFE0020F5
:101AB80003B0F0BDB7F5800F41D025492046FFF7A8
:101AC800A5FE00283ED1234AB66892E803006B467B
:101AD80083E8030020488268194612689047C0B915
:101AE80004F0030304339B000F229A4042EA940255
:101AF800D3B29B0003F1804303F59C33110C986823
:101B080020EA124091FAA1F2B2FA82F29640064314
:101B18009E60B5F1806F0ED0B5F1C06F0DD005F1A4
:101B28007E435942594149002046FFF73FFE20466F
:101B3800FFF71EFEBBE70121F6E70321F4E76FF08C
:101B48008500B5E76FF00F00B2E700BF003801402D
:101B58008D2C0008D4320008C82E000810B54FF0AC
:101B6800E0239A6919699869094B11F4803F09497A
:101B780001D1824206D21A680C6822441A604FF0DA
:101B8800E02212691B680A681344181A10BD00BFC6
:101B9800C8020020D4020020094B102283F8232019
:101BA800084B42F27F521A60074B002018604FF032
:101BB800E0235A6198611A6942F007021A61704776
:101BC80000ED00E0D4020020C802002008B5FFF7AD
:101BD800C5FF0C4B0C4A18681168084410600022B5
:101BE8001A600A4A13684FF41651C01AB0FBF1F094
:101BF80001FB0033136000F065FDBDE80840FFF706
:101C080007BC00BFC8020020D0020020CC02002080
:101C18002DE9F041314E002954D0421C0AD14FF031
:101C2800E022136923F0010313614FF07F4333600F
:101C3800BDE8F081356801284ADD40F2D2684045A8
:101C480001DC00F1FF384FF01003EFF3118483F348
:101C58001288BFF36F8FFFF781FF214F4FF0E0230A
:101C68000021D3F818C03B68C2181E4B19601E4BE0
:101C78001B68D11A2FD44FF4165000FB081101F538
:101C880015519B1A3F31B1FBF0F100FB0133B3F55D
:101C9800806F20D915498B4228BF0B464FF0E021B1
:101CA80033608869013B4B6100238B618445ACEB51
:101CB800000338BF5B191A443A6084F31188BFF3F4
:101CC8006F8FB5E7431C3568B5D140F2D260B8E7ED
:101CD8004FF00008B7E74FF48063DFE7D402002035
:101CE800D0020020C8020020CC02002000C3FF0060
:101CF80010B54FF01003EFF3118483F31288BFF38C
:101D08006F8FFFF72BFF074B074A1B6812689B1A58
:101D1800034484F31188BFF36F8F4FF41650B3FB5D
:101D2800F0F010BDD0020020CC02002008B5134905
:101D38008B6803F00C03042B1CD0082B1CD14A68B9
:101D48004B68496813F4800314BF0D480D48C1F36C
:101D5800881118BF002302F03F02A1FB0001FEF723
:101D680017FA064B5B68C3F3014301335B00B0FB12
:101D7800F3F008BD0248FCE70248FAE700380240E1
:101D880000127A000024F400002876D03C4B1A6830
:101D980002F44042B2F5404F20D13A4A904215D859
:101DA800394A904207D91A6802F44042B2F5004F06
:101DB8005CD102201FE0354A90421A6802F4404282
:101DC80047D9B2F5004F4CD1012014E01A6802F44B
:101DD8004042B2F5004F3FD103200CE01A6802F4EC
:101DE8004042B2F5004F22D1274A90423ED8274AB6
:101DF80090422ED90020224B1B68012838BF0120B1
:101E080003F44043B3F5804F1FD0214A136823F0F1
:101E1800070303431360136803F0070398421CBFCA
:101E2800136803F00703C01A18BF012070471B6826
:101E380003F44043B3F5804F0CD1134B98421AD8A2
:101E4800124B98424FF00000DFD9012838BF01201B
:101E5800DBE71B680020D8E71B68032003F4404336
:101E6800D0E71B68012003F44043CBE71B6802203E
:101E780003F44043C6E70220C7E70120704700BFCC
:101E880000700040804A5D050090D00380C3C901FE
:101E9800003C02400F4B70B553F82040013053F816
:101EA8002060A64200D870BDD4E90035284698477E
:101EB8006DB138B10028B8BF4042EB68FF28A8BF11
:101EC800FF201870EA68537843F001035370083410
:101ED800E7E700BFA433000808B50A4B0122032036
:101EE8001A70FFF7D7FF00F057FC0420FFF7D2FF66
:101EF80000F0DCF8FFF724F9034A137B23F0010311
:101F0800137308BD140300200801002008B5034816
:101F1800034A0021121A00F0FFFE08BD50000020FD
:101F28001803002070B5144E144D1549B82386B017
:101F380003FB006601220023CDE904230F22CDE92B
:101F4800023201931C2303FB00554FF4A072044690
:101F580002FB00110B4B0095304600F07DF8737BB7
:101F68002C7523F004037373074BEE60013403EB05
:101F7800C4236B6006B070BD50000020D80200205A
:101F8800180B0020292D00081803002080B5002018
:101F9800B4B0FFF77FFF294B83F30888284C294EFC
:101FA8006369294F43F4007363610025F02384F8C3
:101FB8002230E57725766576A57684F82050636A21
:101FC80043F4E0236362FFF759FBFFF7F7F84FF09C
:101FD800FF33A362E36240F20113ADF8243006AB8D
:101FE800B3601F9500F065FE0120FFF753FF022044
:101FF800164CFFF74FFF00F00DFA154BF4610593EF
:10200800012314490095CDE903534FF480623B4600
:10201800CDE90155204600F01FF8627B064622F004
:1020280004022046627300F0BBFE2846FFF77AFFE1
:102038003A4631462046FFF7B9F900BF180B002091
:1020480000ED00E0D8020020E11E00080801002091
:10205800AD340008580C00207FB50C9E067307327B
:102068000426467300F158050B9E867322F007027A
:10207800C0E916558E1800250A9A8560C0E90655EC
:10208800C5730292099A0192089A00923246044650
:10209800FFF76CF9044B65659B6803B15B6E63667B
:1020A800304604B070BD00BFD8020020F0B5224C05
:1020B800224D87B02646AE4204F12C040BD300F023
:1020C80079F91D4C1E4F0A26AC4220D307B0BDE853
:1020D800F04000F083B954F8043C059354F80C3CE4
:1020E800049354F8103C039354F8143C029354F8A6
:1020F800183C019354F81C3C009354E9092354E913
:102108000B01FFF7A9FF54F82C3C5E65D2E7626A21
:10211800531C09D022EAE27282FB062352EA030129
:10212800206803D100F028F92C34CDE7394618305F
:1021380000F04AFAF8E700BF683200086832000881
:10214800652D000838B5074D2C6854B1FFF7D0FD50
:10215800054B04441C6128680021BDE8384000F0A4
:102168005BBE38BD0C030020D802002038B50D4DE9
:102178002B4653F8204F9C4200D004B9EC68AB685A
:1021880038B95A7BD20604D1A26912B9DA897F2AF2
:1021980005D89C4202D02046FFF7D4FF2346EB61C6
:1021A80038BD00BFD802002070B590F90D20437BE0
:1021B800002A014604DA03F07F03437300F0BCFDF4
:1021C8004B7B154A63F07F0310464B7350F8203F52
:1021D800546A834208BF002323B9C1E9000421607F
:1021E80051620CE091F90E5093F90E60B5420ED091
:1021F800AE420CDD5868C1E9003001605960906852
:10220800431A5842BDE870405841FFF7AFBF9C429F
:10221800E3D01B68E0E700BFD802002070B490F953
:102228000D30427B002B29DBD30627D183692BBBDA
:10223800134962F07F0242730A4652F8204F9442D3
:1022480018BF23464C6A23B9C0E9002420604862BD
:102258000CE090F90E5093F90E60B5420AD0AE42E8
:1022680008DD5A68C0E900321060586070BC002070
:10227800FFF77CBFA342E7D01B68E4E770BC704758
:10228800D802002010B54FF01003EFF3118483F348
:102298001288BFF36F8F0A23002800FB03F302DDC7
:1022A800022BB8BF0223074A0020106106480360CA
:1022B800064B90681960FFF745FF84F31188BFF358
:1022C8006F8F10BDD80200200C03002008030020E7
:1022D80038B54FF01003EFF3118583F31288BFF37D
:1022E8006F8F174B174A9C6811688C4207D120469C
:1022F800FFF728FF85F31188BFF36F8F38BD0021E2
:102308001160114A1268C2B1E2897F2A15D8627B2E
:10231800D20612D10D4A94F90E10126891420CDBC4
:102328000B4A944209D01A69824203DC2046FFF71F
:102338003BFFDCE7121A1A61DCE70022FBE700BF6B
:10234800D8020020040300200C030020080300200A
:102358005000002049B9EFF3058030B9054BDA6920
:102368009B689A4201D0FEF795BF81F31188BFF3AD
:102378006F8F7047D802002010B54FF01002EFF3AE
:10238800118482F31288BFF36F8F427B510704D404
:1023980084F31188BFF36F8F10BD22F004024273DB
:1023A800FFF73CFF21460248BDE81040FFF7D2BFC7
:1023B800150300204FF01003EFF3118183F3128807
:1023C800BFF36F8F044B9A68D37B013BD37381F3C0
:1023D8001188BFF36F8F7047D802002010B54FF0F7
:1023E8001003EFF3118483F31288BFF36F8F084B48
:1023F8009A68D37B0133D3730020FFF7B7FE84F3C9
:102408001188BFF36F8FBDE8104000F0E5BC00BF36
:10241800D8020020044B002103F12002C3E908225E
:102428000846FFF72FBF00BFD8020020014B98686D
:10243800704700BFD80200202DE9F04104464FF054
:102448001003EFF3118683F31288BFF36F8F037BBA
:10245800D9070BD586F31188BFF36F8F404080F3FF
:1024680011884FF0040002DFBDE8F081437B1A07B2
:1024780004D586F31188BFF36F8FF5E723F02002A8
:1024880042F00801D20920D14173A36813B1204654
:1024980000F05AFC04F1180000F0A8FC04F15807F9
:1024A8004FF00008A56DBD4200D0B5B90120FFF777
:1024B8005DFE104B9B68A342DBD1EFF30583002B35
:1024C800D7D13046FEF7E6FED3E703F05F0343F0CB
:1024D8000803437300F030FCD7E7284600F034FCCB
:1024E80005F1180000F082FCC5F86C802846FFF75B
:1024F80095FED7E7D802002008B50648064A0749DE
:10250800121A00F00BFCBDE80840054A05490648C8
:1025180000F004BC0000002050000020F83400083F
:1025280000000000F834000800000020034B1B687E
:102538000BB9FFF7DDBB0020704700BF1003002078
:1025480010B5114B1C689C420AD1FFF7EFFF6FF0E2
:1025580000400E4B1B6913B19842A8BF184610BD26
:10256800FFF7E4FF002CF2D0D4E904321B1A62EB27
:10257800E072B3F1004F72F10001E8DA002AACBF53
:1025880018460020E5E700BF24000020D8020020FC
:1025980030B570B10B4B5B6898420AD0036843B101
:1025A800D3E90421D0E90445121941EB0501C3E937
:1025B8000421D0E9003213605A600023C0E90033D7
:1025C80030BD00BF24000020B3F1FF3F08BFB2F1C7
:1025D800FF3FF8B504461D46164661D081604FF0AE
:1025E8001003EFF3118783F31288BFF36F8F013263
:1025F80075F1FF3324DA3049D1E900206FF0010387
:102608009B1A4FF0FF3262EB00009E1B60EB050047
:10261800012E70F1000301DA01260020C4E90460EC
:10262800264ED6F800C07568B44508BF4FF0000CB8
:10263800BCF1000F0DD1C4E900652C6074601CE08A
:10264800FFF774FF013645F10005361845EBE070D9
:10265800E4E7DCE90420D4E90431934271EB000E8D
:102668001FDAD21ADCF8043060EB0100CCE9042050
:10267800C4E900C31C60CCF804403368B3420BD0F3
:102688009C4209D1FFF75CFF18B10D4B1B698342CF
:1026980002D00021FFF7BCFA87F31188BFF36F8FD0
:1026A800F8BD9B1A61EB0001AC45C4E90431C2D006
:1026B800DCF800C0BCE700BFC001002024000020F7
:1026C800D80200202DE9F84F0446FFF701FE4FF02D
:1026D8001003EFF3118783F31288BFF36F8FDFF8CE
:1026E800B4902A4ED9F800003460294C484508BFF8
:1026F80000204FF0000A4FF0000BD4E9001E3368A9
:102708003D4688B3D0E904874FEAE37C43457CEB38
:10271800070206DAB8EB030267EB0C07C0E90427E7
:1027280022E018EB01014EEBE873C0E904ABC4E901
:102738000013FFF72DFF85F31188BFF36F8F8368B0
:1027480098474FF01003EFF3118583F31288BFF316
:102758006F8F3368D9F80000A3EB080348452F466C
:102768003360CAD1D4E9001E59184EEBE373C4E9AB
:10277800001300243460FFF7E3FE2146FFF748FA10
:1027880085F31188BFF36F8FBDE8F88F1003002021
:10279800C001002024000020014800F006B800BF56
:1027A800B53400087047002070470FB407B504A976
:1027B80051F8040B0191FEF7D3FC03B05DF804EB6C
:1027C80004B07047044608B5084611461A46A047A3
:1027D800FFF72CFEFEF786FFD0E9002130B54FF059
:1027E8003333A2FB0324D51843EB0405A1FB0313E1
:1027F800521844EB0304521944F10002891843F1BA
:102808000003C0E9001330BD10B50A68002A03466A
:102818000FDD013A0A601A6844680A20A2FB001218
:1028280000FB0422100F22F07042C3E9001230307E
:1028380010BD3020FCE72DE9F84F9A46D3786F2B6E
:1028480080460F461546A3F1410B29D024D8582BB2
:102858000CBF10260A26DDF8289032460023404691
:102868003946FDF795FC092AD4B21ED83034B04554
:10287800E4B277F1000709F8014D01D3D14511D829
:102888002B789B0605D5082E15D1AB7843F00803A5
:10289800AB704846BDE8F88F03F0F703702BD7E715
:1028A8000826D8E780460F46D7E7BBF1190F94BF33
:1028B80037345734DBE7102EEBD1AB7843F01003F5
:1028C800E6E72DE9F0410746884615461E461446B8
:1028D800B44205D30EB1601B08E02378002BFAD070
:1028E80014F8010B4146B8470028F1DABDE8F08139
:1028F80070470020704700F0F4B90146006800F006
:10290800F0B900210120FFF7F6BF08B5FEF790FCEB
:10291800BDE80840FEF77CBD034600201A5C02B9FA
:1029280070470130FAE7034600201A5C0AB1884272
:1029380000D170470130F8E710B5431E0A449142B0
:1029480000D110BD11F8014B03F8014FF7E7C9B2E8
:1029580002440346934200D1704703F8011BF9E78C
:1029680008B5062201210020FEF7F6FE00221146D6
:102978000620FEF745FC012108460722FEF7ECFE7B
:10298800002211460720FEF73BFC08220121022005
:10299800FEF7E2FE002211460820FEF731FC09226C
:1029A80001210320FEF7D8FE002211460920FEF778
:1029B80027FC0A2201210420FEF7CEFE0022114640
:1029C8000A20FEF71DFC052108461722FEF7C4FE63
:1029D800002211461720FEF713FC282206210A20A0
:1029E800FEF7BAFE002211462820FEF709FC002057
:1029F80008BD0B68A3F13002782A9FBF03F180431A
:102A080003F50E3349681A689DBF0A4300201A600F
:102A18006FF0850070470B68A3F13002782A9FBFDA
:102A280003F1804303F50E3349681A689DBF8A4352
:102A380000201A606FF0850070470B68022B03D8DE
:102A480023B96FF085007047062BFAD14A68FF2A30
:102A58000DD0D3B203F1804303F50E33C2F3024124
:102A68001868C2F3042201FA02F202431A60002035
:102A7800704743685B681B690B60002070474368B8
:102A88005B68586942400A4042405A6100207047DA
:102A980043685B6800209961704743685B68090474
:102AA80099610020704743685A6853694B405361E5
:102AB8000020704710B503699868F8B1884219D1A9
:102AC800DC6808689860A14200D1D86000200860DE
:102AD8002AB19A680A60DA68996002B9D960002058
:102AE80010E0814206D108682060D8688142EDD1A3
:102AF800DC60EBE7044600680028F2D1002AE8D140
:102B08006FF0150010BDF0B5446801206768884073
:102B18001E46C2F3801327EA00078B403B436360DD
:102B280090FAA0F7B7FA87F7D4F808C04FF0030E69
:102B38007F000EFA07F72CEA070C90FAA0F7B7FA0D
:102B480087F7C2F3C1137F00BB4043EA0C03A360BD
:102B580090FAA0F3B3FA83F3E7685B000EFA03F385
:102B680027EA030790FAA0F3B3FA83F302F03005DB
:102B78005B00C2F341229A403A43202DE26016D10D
:102B880007292BDC90FAA0F3226A2BB3B3FA83F35C
:102B98009B000F2101FA03F322EA030290FAA0F343
:102BA800B3FA83F39B0006FA03F31343236290FA04
:102BB800A0F3B3FA83F3226890FAA0F05B00032134
:102BC800B0FA80F02D0901FA03F3400022EA03036A
:102BD80085401D432560F0BD2B46D9E7030A616A8D
:102BE80093FAA3F282B1B2FA82F292000F2793FA13
:102BF800A3F3B3FA83F307FA02F29B0021EA020275
:102C08009E4016436662D2E72A46EEE738B5044688
:102C180090030D46134617D591070ED55A072ED5A2
:102C28005022D8060BD542F4007219031AD56168F0
:102C380001234968AB408B610DE01022F1E799064A
:102C4800F3D542F48062F0E7DA0313D5D80613D43B
:102C5800C3F340139A02606800232946FFF753FF25
:102C6800002038BD5B03F6D50121A9402046FFF7B7
:102C780014FFF0E73022EEE74FF40072EBE76FF055
:102C88008500EEE770B50B46896821B101255E68BD
:102C98000C68854001B970BD8A682A4002D04B682B
:102CA800304698471CB1236821461C46F2E7234664
:102CB800FAE7704740B1C368587810F001001EBFAA
:102CC8001878B0FA80F0400970474FF01002EFF31F
:102CD800118382F31288BFF36F8FFEE708B5FFF701
:102CE800F4FFF8B505460E464FF01003EFF31187D1
:102CF80083F31288BFF36F8FFFF798FB31460446C2
:102D08002846FFF7EBFF87F31188BFF36F8F204644
:102D1800BDE8F840FEF7E6BCFFF719BEFFF70CBEAA
:102D280008B54FF01002EFF3118382F31288BFF356
:102D38006F8FFEF749FAF4E7D0E9003213605A6062
:102D48000023C0E90033704708B5FFF7F5FF437B60
:102D580023F0020343730023836008BD10B50146C6
:102D68004FF01003EFF3118483F31288BFF36F8FD2
:102D780010F80B3C13F0280F0DD151F8103C1838FF
:102D88000BB1FFF7E1FF11F80B3C23F0140301F836
:102D98000B3CFFF743FA84F31188BFF36F8F10BD24
:102DA80010B54FF01003EFF3118483F31288BFF3CB
:102DB8006F8FFFF733FA84F31188BFF36F8F10BD5D
:102DC800034620B9EFF305820AB9FEF763BA83F325
:102DD8001188BFF36F8F70474FF01003EFF3118026
:102DE80083F31288BFF36F8FFFF7EABF10B54FF078
:102DF8001002EFF3118482F31288BFF36F8F036818
:102E08003BB1FFF7C5FB002084F31188BFF36F8F38
:102E180010BD6FF01500F7E770B504460D464FF08A
:102E28001003EFF3118683F31288BFF36F8FFFF758
:102E380087FB012807DDA04205DBA0422946A8BF81
:102E48002046FEF7E5FE86F31188BFF36F8F70BD4D
:082E580074D3FF7F01000000AC
:102E60008511000800000000FB2800080000000099
:102E7000DD180008C82E000869290008E02E0008A7
:102E8000311A0008F82E0008311A0008102F000827
:102E9000311A0008282F0008311A0008402F0008B6
:102EA000311A0008582F0008311A0008702F000846
:102EB000311A0008882F0008311A0008A02F0008D6
:082EC000A11B00080000000046
:102EC8002034000800000000040000203E0000201C
:102ED80000000000AE3200080234000800000000C4
:102EE800000000003C000020C8010020A8320008B3
:102EF8002D340008DC3200087C3300084000002034
:102F080048020020A03200083B340008F0320008D4
:102F18007C33000842000020580200209832000844
:102F280049340008043300087C33000844000020BA
:102F3800680200209032000857340008183300084F
:102F48007C33000846000020780200208832000800
:102F5800653400082C3300087C3300084800002042
:102F680088020020803200087334000840330008CB
:102F78007C3300084A0000209802002078320008BC
:102F880081340008543300087C3300084C000020CA
:102F9800A8020020703200088F3400086833000847
:102FA8007C3300084E000020B80200206832000878
:102FB800000000000B290008000000000B29000891
:102FC800000000000B290008000000000B29000881
:102FD800000000000B290008000000000B29000871
:102FE8000034000819170008FE33000819170008F4
:102FF800FC33000819170008FA33000819170008ED
:10300800F833000819170008000000000B29000811
:10301800000000000B290008000000000B29000830
:10302800000000000B290008000000000B29000820
:10303800000000000B290008000000000B29000810
:10304800000000000B290008000000000B29000800
:10305800000000000B290008000000000B290008F0
:10306800000000000B290008F633000819170008B3
:10307800000000000B290008000000000B290008D0
:10308800000000000B290008000000000B290008C0
:10309800000000000B290008000000000B290008B0
:1030A800000000000B290008000000000B290008A0
:1030B800000000000B290008000000000B29000890
:1030C800000000000B290008000000000B29000880
:1030D800000000000B290008000000000B29000870
:1030E800000000000B290008000000000B29000860
:1030F800F433000819170008000000000B29000825
:10310800000000000B290008000000000B2900083F
:10311800000000000B290008000000000B2900082F
:10312800000000000B290008000000000B2900081F
:10313800000000000B290008000000000B2900080F
:10314800000000000B290008000000000B290008FF
:10315800000000000B290008000000000B290008EF
:10316800000000000B290008000000000B290008DF
:10317800000000000B290008000000000B290008CF
:10318800000000000B290008000000000B290008BF
:10319800000000000B290008000000000B290008AF
:1031A800000000000B290008000000000B2900089F
:1031B800000000000B290008000000000B2900088F
:1031C800000000000B290008000000000B2900087F
:1031D800000000000B290008000000000B2900086F
:1031E800000000000B290008000000000B2900085F
:1031F800000000000B290008000000000B2900084F
:10320800000000000B290008000000000B2900083E
:10321800000000000B290008000000000B2900082E
:10322800000000000B290008000000000B2900081E
:10323800000000000B290008000000000B2900080E
:10324800000000000B290008000000000B290008FE
:10325800000000000B290008000000000B290008EE
:10326800010000800080FF7F010000800080FF7F58
:10327800010000800080FF7F010000800080FF7F48
:10328800010000800080FF7F010000800080FF7F38
:10329800010000800080FF7F010000800080FF7F28
:1032A80000800080FF7F008000800300040005008C
:0C32B80006000700080009000A00FF7F64
:1032C400DD33000800000000B234000800000000F4
:1032D4004400000000400000FFFF0000001C02400A
:1032E400070000003000000080000000FFFF000025
:1032F40000180240060000003000000040000000FA
:10330400FFFF000000140240050000003000000030
:1033140020000000FFFF0000001002400400000035
:103324003000000010000000FFFF0000000C02400D
:10333400030000003000000008000000FFFF000050
:1033440000080240020000003000000004000000F9
:10335400FFFF0000000402400100000030000000F4
:1033640002000000FFFF0000000002400000000017
:103374003000000001000000152C00087B2A000822
:10338400872A0008992A0008A32A0008AF2A0008FF
:10339400611A0008BD2A000800000000F5FFFFFFC5
:1033A400602E0008602E0008C02E0008C82E0008F9
:1033B400C82E0008C82E00086E75636C656F6634ED
:1033C400313172650054657374206166206D6169E2
:1033D4006E202D2025730D0A0063627072696E746D
:1033E400665F7061636B61676500286E696C2900B4
:1033F4000A06050504010301020101010001696EC9
:10340400746572727570742D636F6E74726F6C6C08
:10341400657240343030313363303000726363405E
:103424003430303233383030006770696F403430B4
:10343400303231633030006770696F40343030327D
:1034440031383030006770696F4034303032313495
:103454003030006770696F40343030323130303092
:10346400006770696F403430303230633030006749
:1034740070696F40343030323038303000677069F2
:103484006F403430303230343030006770696F4010
:1034940034303032303030300000000000000000A2
:1034A4000001020304060708096D61696E006F7369
:1034B400002A2A2A20426F6F74696E67205A657049
:1034C400687972204F53206275696C64207A657044
:1034D4006879722D76332E332E302D3935332D679E
:1034E400663139653664343831313634202A2A2A33
:0434F4000A000000CA
:1034F800AF270008FB2900081F2A00080000000069
:103508004D1800080000000000000000432A0008D1
:103518000024F4002400002024000020FFFFFFFF07
:0C352800FFFFFFFFFFFFFFFFFFFFFFFFA3
:103534000000000000000000000000000000000087
:043544000000000083
:0435480015E015E095
:04000005080016C118
:00000001FF
