:020000040800F2
:100000000011002011220008B7410008E521000876
:10001000E5210008E5210008E521000800000000B6
:10002000000000000000000000000000A51E000805
:10003000E521000800000000211E0008A927000893
:10004000411F0008411F0008411F0008411F000810
:10005000411F0008411F0008411F0008411F000800
:10006000411F0008411F0008411F0008411F0008F0
:10007000411F0008411F0008411F0008411F0008E0
:10008000411F0008411F000809290008411F0008FE
:10009000411F0008411F0008411F0008411F0008C0
:1000A000411F0008411F0008411F0008411F0008B0
:1000B000512A0008411F0008411F0008411F000885
:1000C000411F0008411F0008411F0008411F000890
:1000D000411F0008411F0008411F0008411F000880
:1000E000411F0008411F0008411F0008411F000870
:1000F000411F0008411F0008411F0008411F000860
:10010000411F0008411F0008411F0008411F00084F
:10011000411F0008411F0008411F0008411F00083F
:10012000411F0008411F0008411F0008411F00082F
:10013000411F0008411F0008411F0008411F00081F
:10014000411F0008411F0008411F0008411F00080F
:10015000411F0008411F0008411F0008411F0008FF
:10016000411F0008411F0008411F0008411F0008EF
:10017000411F0008411F0008411F0008411F0008DF
:10018000411F0008411F0008411F0008411F0008CF
:08019000411F0008411F000897
:10019800FFFFFFFFFFFFFFFFFFFFFFFFFFFFFFFF67
:1001A800FFFFFFFFFFFFFFFFFFFFFFFFFFFFFFFF57
:0801B800FFFFFFFFFFFFFFFF47
:1001C00090F800F06DE9024520F007016FF0000C97
:1001D00010F0070491F820F040F049804FF000043F
:1001E0006FF00700D1E9002391F840F000F108001A
:1001F00082FA4CF2A4FA8CF283FA4CF3A2FA8CF352
:100200004BBBD1E9022382FA4CF200F10800A4FAB8
:100210008CF283FA4CF3A2FA8CF3E3B9D1E904230C
:1002200082FA4CF200F10800A4FA8CF283FA4CF343
:10023000A2FA8CF37BB9D1E9062301F1200182FAFD
:100240004CF200F10800A4FA8CF283FA4CF3A2FA03
:100250008CF3002BC6D0002A04BF04301A4612BA11
:10026000B2FA82F2FDE8024500EBD2007047D1E914
:10027000002304F00305C4F100004FEAC50514F0A3
:10028000040F91F840F00CFA05F562EA05021CBF74
:1002900063EA050362464FF00004A9E781F00041DC
:1002A00002E000BF83F0004330B54FEA41044FEA5B
:1002B000430594EA050F08BF90EA020F1FBF54EAF6
:1002C000000C55EA020C7FEA645C7FEA655C00F092
:1002D000E2804FEA5454D4EB5555B8BF6D420CDD63
:1002E0002C4480EA020281EA030382EA000083EAE6
:1002F000010180EA020281EA0303362D88BF30BD86
:1003000011F0004F4FEA01314FF4801C4CEA1131DB
:1003100002D0404261EB410113F0004F4FEA03333A
:100320004CEA133302D0524263EB430394EA050FC5
:1003300000F0A780A4F10104D5F1200E0DDB02FA34
:100340000EFC22FA05F2801841F1000103FA0EF2C8
:10035000801843FA05F359410EE0A5F120050EF18E
:10036000200E012A03FA0EFC28BF4CF0020C43FABF
:1003700005F3C01851EBE37101F0004507D54FF0CC
:10038000000EDCF1000C7EEB00006EEB0101B1F51C
:10039000801F1BD3B1F5001F0CD349085FEA300062
:1003A0004FEA3C0C04F101044FEA445212F5800F6D
:1003B00080F09A80BCF1004F08BF5FEA500C50F10A
:1003C000000041EB045141EA050130BD5FEA4C0CED
:1003D000404141EB0101013C28BFB1F5801FE9D24A
:1003E00091F0000F04BF01460020B1FA81F308BF6D
:1003F0002033A3F10B03B3F120020CDA0C3208DD39
:1004000002F1140CC2F10C0201FA0CF021FA02F113
:100410000CE002F11402D8BFC2F1200C01FA02F183
:1004200020FA0CFCDCBF41EA0C019040E41AA2BFA8
:1004300001EB0451294330BD6FEA04041F3C1CDA70
:100440000C340EDC04F11404C4F1200220FA04F090
:1004500001FA02F340EA030021FA04F345EA03013A
:1004600030BDC4F10C04C4F1200220FA02F001FAFC
:1004700004F340EA0300294630BD21FA04F029467E
:1004800030BD94F0000F83F4801306BF81F4801117
:100490000134013D4EE77FEA645C18BF7FEA655C8A
:1004A00029D094EA050F08BF90EA020F05D054EA5C
:1004B000000C04BF1946104630BD91EA030F1EBF61
:1004C0000021002030BD5FEA545C05D14000494165
:1004D00028BF41F0004130BD14F580043CBF01F558
:1004E000801130BD01F0004545F0FE4141F470013E
:1004F0004FF0000030BD7FEA645C1ABF1946104619
:100500007FEA655C1CBF0B46024650EA013406BF19
:1005100052EA033591EA030F41F4002130BD00BFD8
:1005200090F0000F04BF0021704730B54FF4806495
:1005300004F132044FF000054FF0000150E700BF16
:1005400090F0000F04BF0021704730B54FF4806475
:1005500004F1320410F0004548BF40424FF0000162
:100560003EE700BF42004FEAE2014FEA31014FEAA5
:1005700002701FBF12F07F4393F07F4F81F06051F4
:10058000704732F07F4208BF704793F07F4F04BF3F
:1005900041F40021704730B54FF4607401F000451C
:1005A00021F000411CE700BF50EA010208BF70477C
:1005B00030B54FF000050AE050EA010208BF70476D
:1005C00030B511F0004502D5404261EB41014FF4D6
:1005D000806404F132045FEA915C3FF4D8AE4FF0DE
:1005E00003025FEADC0C18BF03325FEADC0C18BFC1
:1005F000033202EBDC02C2F1200300FA03FC20FA12
:1006000002F001FA03FE40EA0E0021FA02F114445E
:10061000BDE600BF70B54FF0FF0C4CF4E06C1CEA77
:1006200011541DBF1CEA135594EA0C0F95EA0C0FE8
:1006300000F0DEF82C4481EA030621EA4C5123EA5B
:100640004C5350EA013518BF52EA033541F480118A
:1006500043F4801338D0A0FB02CE4FF00005E1FB3D
:1006600002E506F00042E0FB03E54FF00006E1FB87
:1006700003569CF0000F18BF4EF0010EA4F1FF04CA
:10068000B6F5007F64F5407404D25FEA4E0E6D410A
:1006900046EB060642EAC62141EA55514FEAC5201B
:1006A00040EA5E504FEACE2EB4F1FD0C88BFBCF597
:1006B000E06F1ED8BEF1004F08BF5FEA500E50F148
:1006C000000041EB045170BD06F0004646EA01010E
:1006D00040EA020081EA0301B4EB5C04C2BFD4EB40
:1006E0000C0541EA045170BD41F480114FF0000E39
:1006F000013C00F3AB8014F1360FDEBF002001F0A7
:10070000004170BDC4F10004203C35DA0C341BDC20
:1007100004F11404C4F1200500FA05F320FA04F0F2
:1007200001FA05F240EA020001F0004221F0004126
:1007300010EBD37021FA04F642EB06015EEA430E99
:1007400008BF20EAD37070BDC4F10C04C4F12005C9
:1007500000FA04F320FA05F001FA04F240EA02007C
:1007600001F0004110EBD37041F100015EEA430E4D
:1007700008BF20EAD37070BDC4F1200500FA05F26D
:100780004EEA020E20FA04F301FA05F243EA0203EC
:1007900021FA04F001F0004121FA04F220EA0200FB
:1007A00000EBD3705EEA430E08BF20EAD37070BD41
:1007B00094F0000F0FD101F00046400041EB010121
:1007C00011F4801F08BF013CF7D041EA060195F003
:1007D000000F18BF704703F00046520043EB0303BD
:1007E00013F4801F08BF013DF7D043EA06037047AA
:1007F00094EA0C0F0CEA135518BF95EA0C0F0CD0B5
:1008000050EA410618BF52EA4306D1D181EA0301FA
:1008100001F000414FF0000070BD50EA410606BFF4
:100820001046194652EA430619D094EA0C0F02D139
:1008300050EA013613D195EA0C0F05D152EA03367E
:100840001CBF104619460AD181EA030101F000419C
:1008500041F0FE4141F470014FF0000070BD41F0E5
:10086000FE4141F4780170BD70B54FF0FF0C4CF4BF
:10087000E06C1CEA11541DBF1CEA135594EA0C0FDE
:1008800095EA0C0F00F0A7F8A4EB050481EA030E2B
:1008900052EA03354FEA013100F088804FEA033312
:1008A0004FF0805545EA131343EA12634FEA0222E0
:1008B00045EA111545EA10654FEA00260EF00041A1
:1008C0009D4208BF964244F1FD0404F5407402D2F3
:1008D0005B084FEA3202B61A65EB03055B084FEA84
:1008E00032024FF480104FF4002CB6EB020E75EB81
:1008F000030E22BFB61A754640EA0C005B084FEAA9
:100900003202B6EB020E75EB030E22BFB61A754625
:1009100040EA5C005B084FEA3202B6EB020E75EB70
:10092000030E22BFB61A754640EA9C005B084FEAE8
:100930003202B6EB020E75EB030E22BFB61A7546F5
:1009400040EADC0055EA060E18D04FEA051545EAE4
:1009500016754FEA06164FEAC30343EA52734FEA8D
:10096000C2025FEA1C1CC0D111F4801F0BD141EA06
:1009700000014FF000004FF0004CB6E711F4801F6B
:1009800004BF01430020B4F1FD0C88BFBCF5E06F4B
:100990003FF6AFAEB5EB030C04BFB6EB020C5FEA5B
:1009A000500C50F1000041EB045170BD0EF0004EB0
:1009B0004EEA113114EB5C04C2BFD4EB0C0541EAE2
:1009C000045170BD41F480114FF0000E013C90E6DF
:1009D00045EA060E8DE60CEA135594EA0C0F08BFA3
:1009E00095EA0C0F3FF43BAF94EA0C0F0AD150EAA2
:1009F00001347FF434AF95EA0C0F7FF425AF104635
:100A000019462CE795EA0C0F06D152EA03353FF45C
:100A1000FDAE1046194622E750EA410618BF52EAD9
:100A200043067FF4C5AE50EA41047FF40DAF52EAAD
:100A300043057FF4EBAE12E74A0011D212F5001223
:100A400011D20DD56FF47873B3EB62520ED44FEA26
:100A5000C12343F0004343EA505323FA02F07047A6
:100A60004FF00000704750EA013002D14FF0FF30E4
:100A700070474FF00000704753B94AB9002908BFCA
:100A800000281CBF4FF0FF314FF0FF3000F00CB8D2
:100A9000ADF1080C6DE904CE00F0A2F8DDF804E039
:100AA000DDE9022304B07047704700BF844641EA85
:100AB000000313F003036DD1403A41D351F8043BD6
:100AC00040F8043B51F8043B40F8043B51F8043B28
:100AD00040F8043B51F8043B40F8043B51F8043B18
:100AE00040F8043B51F8043B40F8043B51F8043B08
:100AF00040F8043B51F8043B40F8043B51F8043BF8
:100B000040F8043B51F8043B40F8043B51F8043BE7
:100B100040F8043B51F8043B40F8043B51F8043BD7
:100B200040F8043B51F8043B40F8043B51F8043BC7
:100B300040F8043B51F8043B40F8043B403ABDD236
:100B4000303211D351F8043B40F8043B51F8043BD8
:100B500040F8043B51F8043B40F8043B51F8043B97
:100B600040F8043B103AEDD20C3205D351F8043B67
:100B700040F8043B043AF9D2043208D0D2071CBF33
:100B800011F8013B00F8013B01D30B88038060465C
:100B9000704700BF082A13D38B078DD010F00303D2
:100BA0008AD0C3F10403D21ADB071CBF11F8013B42
:100BB00000F8013B80D331F8023B20F8023B7BE791
:100BC000043AD9D3013A11F8013B00F8013BF9D2BC
:100BD0000B7803704B7843708B7883706046704756
:100BE0002DE9F04786468C460846089E1546744611
:100BF0001946002B40F0C2808542B2FA82F245D9F4
:100C00004AB1C2F1200300FA02FC2EFA03F3954028
:100C100043EA0C0C94404FEA154EA8B2BCFBFEF818
:100C2000230C0EFB18CC08FB00F943EA0C43994552
:100C300028D9EB1808F1FF3704D2994502D9A8F159
:100C400002072B44A3EB0903A4B2B3FBFEFC0EFB8B
:100C50001C330CFB00F044EA0344A04214D92C19C5
:100C60000CF1FF3304D2A04202D9ACF102032C44B0
:100C7000241A43EA07401EB1D44000233460736055
:100C8000BDE8F0874746DDE76346F1E792BB431BCB
:100C900001214FEA154EAFB2B3FBFEFC200C0EFB58
:100CA0001C330CFB07F840EA0343984562D9EB1864
:100CB0000CF1FF3004D2984502D9ACF102002B446C
:100CC000A3EB0803A4B2B3FBFEFC0EFB1C330CFB2E
:100CD00007F744EA0344A7424ED92C190CF1FF331D
:100CE00004D2A74202D9ACF102032C44E41B43EA2C
:100CF0000040C0E7C2F1200320FA03F19540904084
:100D00002EFA03F303434FEA154EAFB2B1FBFEFCDC
:100D10000EFB1C10190C0CFB07F841EA004188453A
:100D200004FA02F422D969180CF1FF3004D2884584
:100D300002D9ACF102002944A1EB08019BB2B1FB3E
:100D4000FEFC0EFB1C110CFB07F743EA01439F421C
:100D50000ED9EB180CF1FF3104D29F4202D9ACF14D
:100D600002012B44DB1B41EA004192E76046E3E7C6
:100D70006146F7E76046A3E76346B7E7834206D9D3
:100D800016B9002108467BE7C6E900E0F9E7B3FAA7
:100D900083F78FB9834201D3724508D8BEEB0204B2
:100DA00060EB030301209C461EB9002168E738462A
:100DB000FAE7C6E9004CF8E7C7F1200CBB4022FA7D
:100DC0000CF41C432EFA0CF120FA0CF3B84001434A
:100DD0004FEA14490EFA07F5B3FBF9F81FFA84FE3F
:100DE00009FB18300B0C08FB0EFA43EA00439A4546
:100DF00002FA07F240D9E31808F1FF3004D29A450D
:100E000002D9A8F102002344A3EB0A0389B2B3FB81
:100E1000F9F809FB183308FB0EFE41EA03418E4541
:100E20002CD9611808F1FF3304D28E4502D9A8F1FC
:100E30000203214443EA0040A0FB0298A1EB0E010B
:100E40004145CE46434602D306D14D4504D2B9EBC7
:100E5000020E68EB04030138002EA6D0B5EB0E029B
:100E600061EB030101FA0CFC22FA07F34CEA0303DD
:100E7000F940C6E9003198E74046C5E74346D9E75F
:100E80002DE9F04F9FB08246039116461C4600257F
:100E9000307810B9284600F085BD731C25280693CC
:100EA00006D00399D0470028C0F27C8501351BE2AB
:100EB0001822002110A803F0ADF87378252B00F05C
:100EC000BA800023711C98469E469C4618460F46E1
:100ED00011F8012B2B2A00F0DD8000F2D480202AAB
:100EE00000F0DB80232A00F0DB802BB19DF8483036
:100EF00043F040038DF84830B8F1000F05D09DF85D
:100F0000483043F020038DF84830BEF1000F05D083
:100F10009DF8483043F010038DF84830BCF1000FC5
:100F200005D09DF8483043F008038DF8483028B1CB
:100F30009DF8483043F004038DF848309DF8483060
:100F400003F04401442903D16FF386138DF8483030
:100F50009DF848300E9743F080032A2A8DF84830D8
:100F600040F0A3809DF8493043F001038DF84930EB
:100F70007B1C1A782E2A9DF849200CBF01210021E4
:100F800061F341028DF849200CD15A1C0E925A7817
:100F90002A2A40F09A809DF8492042F004028DF8F8
:100FA000492002331A786C2A00F0BB8000F29D8041
:100FB000682A00F0A3806A2A00F0BC804C2A00F066
:100FC000C18013F8012B0693782A8DF84B2000F28C
:100FD00001816D2A00F2C380692A00F2FB80572A42
:100FE00000F2DA80412A04D0A2F14503022B00F27C
:100FF000F1809DF84A3002F0DF020421A2F141079E
:1010000061F302037A429DF849108DF84A307A4123
:1010100062F3C7110A068DF84910CBB200F11981AD
:1010200003F07802182A40F003816FF3C6038DF8AD
:1010300049300023F2E0B21C06928DF84B309DF847
:101040004930D90740F1078154F8042B0492002A53
:1010500008DA9DF8482042F004028DF84820049AEE
:10106000524204925A0740F1FE8054F8047B002F4C
:1010700080F2FD809DF849306FF341038DF84930CF
:101080004FF0FF37F3E02D2A0DD0302A7FF42DAF3B
:1010900001231CE74FF0010C19E74FF0010E16E792
:1010A0004FF0010813E7012011E70EA800F0AEFD94
:1010B0000E9BBB423FF45DAF9DF848201390C00FDC
:1010C00060F341028DF8482053E70EA800F09EFD22
:1010D0009DF848301490C3F3400242EAD07262F3A4
:1010E00041038DF848300E9B5CE7742A26D07A2A9B
:1010F0007FF467AF9DF8492006210CE05A78682AF2
:101100009DF8492006D1012161F3C6028DF84920DE
:10111000023356E7022161F3C6028DF849200133FC
:101120004FE75A786C2A9DF8492001D10421EBE75A
:101130000321F0E79DF849200521ECE79DF84920BF
:101140000721E8E7BDF8482022F4F04222F002022D
:1011500042F4804242F00202ADF84820DFE76E3AE6
:10116000D3B201229A4040F282431A429DF849309C
:1011700037D112F0240F5FD1D1072BD59DF84A202B
:1011800003F07803A3F14000032161F3020243421C
:101190008DF84A20434141E0A2F15801C9B2012033
:1011A00000FA01F111F4624F7FF423AF40F601031E
:1011B00019429DF849301AD111F4043F0AD09DF824
:1011C0004A2060F3020203F07803402B8DF84A2096
:1011D0007FF42FAF9DF8483043F001038DF848307D
:1011E00027E79DF84A20022161F30202EBE79DF810
:1011F0004A10022003F0780360F30201402B8DF8BF
:101200004A1002BF9DF8481041F001018DF84810C6
:10121000632A7FF40EAF003B18BF01239DF84820DE
:10122000C2F340010B4363F341028DF8482006E707
:1012300013F0380FCED1FCE69DF84A20032113F0BD
:10124000780F61F302028DF84A2014BF01230023B6
:10125000E4E70123E2E79DF94820002AB4BF139A8E
:101260004FF0FF32FDE69F077FF50AAF149F002382
:10127000CDE913339DF84A3003F00702042A9DF8A4
:10128000492007D1900705D49DF949100029ACBF2A
:1012900006270D2703F00703012BC2F3C30233D146
:1012A000D31E042B04D8DFE803F021464621210099
:1012B0002368012A4FEAE371CDE910311CD19DF971
:1012C0004030D917CDE9103104349DF848300793E8
:1012D000990750D0069B03993246504602F047FFCB
:1012E0000028C0F25F830544069ED1E554F8043B14
:1012F000D917CDE91031E8E7022AE5D119B243F355
:10130000C033CDE91013DFE7022B24D1D31E042B09
:1013100004D8DFE803F0181010181800012A54F858
:10132000043B4FF0000114D0022ACDE91031CCD19A
:101330009BB21093C9E7073424F00704F4E80201D4
:10134000CDE91001C1E754F8043B10930023119339
:10135000BBE7DBB2CDE7042B08D1073424F0070448
:10136000D4E900010834CDE91001AEE7032BACD17C
:1013700054F8043BDDE79DF84BB0BBF1780FB3D8D0
:10138000BBF1570F49D8BBF1250F00F09180BBF19D
:10139000240FA9D9BBF1410F03D0ABF14502022ABA
:1013A000A2D8DDE91012002AC0F23681079B1E0781
:1013B00000F13581C3F300194FEA4919C2F30A500D
:1013C000C2F31302002840F02D8151EA020614BF37
:1013D00001260026D20242EA5152C902BBF1460F51
:1013E00040EA010E42EAE07C08BF4FF0660B5EEA7D
:1013F0000C0CCDE90C1200F09C81002E40F04981CC
:101400000D9A42F00042A0F2FE380D920020DDE974
:101410000C1206464FF0050C55E1ABF1580120299E
:101420003FF662AF01A050F821F000BFB7150008E9
:10143000E9120008E9120008E9120008E9120008A0
:10144000E9120008E9120008E9120008E912000890
:10145000A3130008E91200083B1500084F15000807
:10146000A3130008A3130008A3130008E91200083F
:101470004F150008E9120008E9120008E9120008F7
:10148000E9120008F1150008B7150008BD1500089D
:10149000E9120008E9120008B7140008E912000870
:1014A000B7150008E9120008E9120008B71500088E
:1014B00003995846F6E4002F109E3ADB3946304631
:1014C00002F0FAFD3718002E3FF40EAF4FF000097E
:1014D0009DF84A3013F01002059200F05882023055
:1014E00013F04003DDF84C80089318BF149BCDF82F
:1014F0001C80404418BFC018049B002B40F362823C
:101500009DF848201B1A50070493C2F3800B00F18A
:101510005982510640F14982B9F1000F07D0039971
:101520004846D0470028C0F23D820135D9463022D6
:101530003CE23046FEF744FEC4E7109B8DF85C3079
:101540004FF000090DF15D0717AE0120C0E7079BC2
:101550001A0758BFC3F30019DDE9102354BF4FEA3F
:1015600049194FF02B09002B06DA524263EB430373
:10157000CDE910234FF02D090DF175030093DDE93E
:10158000100117AB12AA00F057FB0646002F0CDB28
:101590009DF848200DF175039B1B6FF386129F4247
:1015A0008DF8482001D9FB1A1393002E3FF49CAE0E
:1015B0000DF175075BE04FF00009DDE7109800289A
:1015C00000F0E0810DF17503009312AA17AB002122
:1015D00000F032FBBDF84A3003F0EF0343F4F04370
:1015E00043F010030646ADF84A304FF00009CDE74E
:1015F000109B072A3FF678AEDFE802F00C04060CD9
:1016000008080C0C1D706FE61D806DE6EA17C3E933
:10161000005269E61D6067E64FF02D09CEE64FF0F7
:101620002B09CBE640F2FF76B0422FD10BF101033C
:101630009F48DBB20A43C35C03F003031ED1012BB6
:101640000BBF492369234E216E210CBF462266221F
:101650008DF85C309DF848308DF85D106FF386137F
:101660008DF85E208DF848300DF15F0717AEB81B7E
:10167000B9F1000F3FF42CAF013029E7012B15BF62
:101680006E234E23612141211A46E1E70026A1E69F
:10169000013849185241002AFADACDE90C12AFE6B6
:1016A000490841EAC2715208B2F1333F404608F19D
:1016B0000108F5D20CFB02FEA1FB0C1200F102089E
:1016C0007244013E012018F1020FE9DB08B1CDE9B7
:1016D0000C12B8F1000FDDE90C212DDCC8F104007B
:1016E000A0F1200C08F11C08C24001FA08F821FA08
:1016F0000CFCC1400BF0DF0042EA0802472842EA36
:101700000C023AD1F01C01DBB7422BDAABF1020339
:10171000002F5FFA83FB7DDD9DF84800830607F10B
:10172000FF3777D43B1E18BF0123059307F101084B
:101730002DE04FF0000869E6023241F100010CA8EB
:10174000CDE90C2102F0E4FCDDE90C2108F1FF38C1
:10175000013692184941002908F1FF38F9DACDE93C
:101760000C21B6E79DF848309806A7EB06074FD442
:101770003B1E18BF0123059304E00023BBF1660F55
:101780000593D3D117EB06084FF0660B44D4B8F19C
:10179000100FA8BF4FF010089FED437B8DED0E7B1F
:1017A00010200B90DDE90E03B8F1000F37D11218AD
:1017B00041EB0301B1F1805F41D2CDE90C21079BE0
:1017C000BBF1660F03F0200240F0BB80002E41DC2D
:1017D00030218DF85C10002A6CD1002F40F3B581C8
:1017E0002E228DF85D2086B17242BA42A8BF3A46D9
:1017F0009DF84A101392002AA7EB0207D4BF0022DB
:10180000012262F345118DF84A100DF15E0839E0AE
:101810000023B0E7002388E74FF00008BCE740084A
:1018200040EAC3705B08CDE90E030EA8CDE908219C
:1018300008F1FF3802F06CFCDDE90821B2E752083C
:1018400042EAC1720CA84908CDE90C21013602F028
:101850005FFCB4E70DF15C080B99002909DD0BA9C9
:101860000CA8079202F06CFC013E08F8010B079AE5
:10187000F2D113969AB9002F40F365812E2108F812
:10188000011B0026002F1EDD0B9A002A1BDD0BA971
:101890000CA802F055FC013F08F8010BF2E72E22DC
:1018A00008F8012BEDE700BF000000000000000871
:1018B000405C00082E228DF85D20002EA5D0002F60
:1018C00092DC0DF15E08059B002B4ED11497474624
:1018D0000BF0DF02452A23D1002EBABF76422D231A
:1018E0002B23632EC8BF64217B70D1BFBA1CB6FB0B
:1018F000F1F3FA1C03F13000C8BF01FB13664FF08F
:101900000A01C8BFB87087F800B0B6FBF1F31746FC
:1019100003F1300001FB1363303307F8020B5370FF
:10192000139B002B2CDC149B002BD4BF0023012322
:101930009DF84A2063F3861200238DF84A203B70FD
:1019400094E60BA90CA8079202F0FAFB079A8DF80F
:101950005C00302818BF06F1FF3612B9002F40F3A3
:10196000F4802E228DF85D204FE7474608F1FF38BE
:1019700017F8012C302AF8D02E2A08BF4746A7E7CF
:101980000123D5E7724F81467E1F0520A0E51A0787
:1019900048BF0130A4E5104609920399D0470028BA
:1019A000099A05DA1FB0BDE8F08F2022DDF810B0EB
:1019B000594600290BF1FF3BEDDC049BCDF810B03C
:1019C0002B445D1AB9F1000F05D003994846D04762
:1019D0000028E7DB0135089B002B79D09DF94930C1
:1019E000002B29DBDFF86C913346187819F80020BA
:1019F00052079B4603F101033FD49DF84A30AE1BCA
:101A000098065E4407D44246002A08F1FF383BDCC2
:101A1000079B33449E1A9BF800002E280AD1039995
:101A2000D0470028BEDBB8F1000F06F1010631DC1B
:101A30000BF1010B5D4638E0B14699F800007028C3
:101A4000C84609F1010913D1AE1B149D4644354423
:101A5000AB1B002B34DC03993B464246504602F058
:101A600086FB00289EDB3044049E0546064465E064
:101A70000399D0470028E0DA94E705930399D0470B
:101A80000028059BB1DA8DE703993020D047002864
:101A9000B9DA87E703993020D04708F1FF38C0E76B
:101AA0000399D0470028FFF67DAF287819F8003059
:101AB0005907A84605F10105F2D4A6EB0B06C4E7C9
:101AC00003993020D0470028FFF66CAF0136BFE7FE
:101AD0009DF84A30DA0601D41B0706D50399302059
:101AE000D0470028FFF65EAF0135059B3BB1039957
:101AF0009DF84B00D0470028FFF654AF0135A844AD
:101B000006E003993020D0470028FFF64BAF01359F
:101B1000A8EB0503002BF4DC03993B463246504604
:101B200002F025FB0028FFF63DAF28449CE703990F
:101B30002020D0470028FFF635AF0135731B002B5E
:101B4000F5DCFFF7D1BB1646BDE60DF15D08BAE640
:101B5000645D0008415C000837B544686A46206847
:101B6000211D01F00FFB002802DA002003B030BD78
:101B7000207C01A902F0E8FE0028F6DB638A9DEDD7
:101B8000017A07EE903AF8EE677A77EEA77A77EE69
:101B9000877A17EE900AFEF7E5FCDDED007AF8EEA5
:101BA000677A044617EE900A0D46FEF7DBFC024604
:101BB0000B4607A1D1E90001FEF756FE02460B468F
:101BC00020462946FEF726FDFEF736FFCEE700BF8A
:101BD0000000000065CDCD41014802F082BA00BF8F
:101BE000415D0008014B1B68184700BF0000002042
:101BF00007B50B460021024600910348FFF740F964
:101C000003B05DF804FB00BFE51B0008F0B5094E0A
:101C1000016802460A2700200B4601311C78355D19
:101C20006D0701D41360F0BD07FB0043A3F1300042
:101C3000F2E700BF415C00082DE9F84F15469A46CF
:101C4000D378224A12F803B06F2B80460F460BF070
:101C5000030B29D024D8582B0CBF10260A26DDF8F8
:101C600028903246002340463946FEF705FF092AF0
:101C7000D4B21ED83034B045E4B277F1000709F889
:101C8000014D01D3D14511D82B789B0605D5082EDF
:101C900015D1AB7843F00803AB704846BDE8F88F28
:101CA00003F0F703702BD7E70826D8E780460F46E6
:101CB000D7E7BBF1010F0CBF37345734DBE7102EE9
:101CC000EBD1AB7843F01003E6E700BF415C0008BE
:101CD0000C4B1A6842F400721A601A6842F480626F
:101CE0001A604FF02002EFF3118382F31288BFF3E2
:101CF0006F8F83F31188BFF36F8F034B034A1A6012
:101D000000207047003C0240200000200024F40026
:101D1000014910220A60704710ED00E072B64040A1
:101D200080F31188BFF36F8FBFF34F8F30BF62B660
:101D3000BFF36F8F704700BF40B2002807DB044A33
:101D40004109012300F01F00834042F82130704711
:101D500000E100E040B2D30754BF02310021002867
:101D6000ACBF00F16040074A4FEA0113ACBF00F579
:101D7000614000F00F00DBB2B4BF135480F80033B1
:101D8000704700BF14ED00E030BFFFF7FDBF00BF9C
:101D9000144A08B5144B22F07F029A60BFF34F8FAC
:101DA000BFF36F8FD3F8882022F47002C3F8882025
:101DB000D3F8882042F4A002C3F888204FF04042B4
:101DC000C3F83422BFF34F8FBFF36F8F0023E1EED0
:101DD000103A01F0A7FC01F09BFF00F00DFA01F0B2
:101DE000E1FC00BF0000000800ED00E0094A0A49DC
:101DF00093680968D966094998664B6843F080532F
:101E00004B60002383F31188BFF36F8F9368D86E04
:101E1000704700BF80030020245C000800ED00E054
:101E20001E498A6882F8B1E04FF030001044EFF3A9
:101E3000098C80E8F01F1EF0100F03D102F1700032
:101E400080EC108A202080F31288BFF36F8F144F2C
:101E50004FF00066CA698A603E6092F9B1E0906E08
:101E60000023936680F311881EF0100F03D0002327
:101E7000E1EE103A03E002F1700090EC108AEFF30B
:101E8000148323F0040383F31488BFF36F8F02F1EC
:101E9000300090E8F01F8CF3098870478003002021
:101EA00004ED00E01EF0040F0CBFEFF30880EFF329
:101EB0000980816911F8021C0229FFD001B502F0E6
:101EC00072F901BD42F8203C009B42F81C3C019B8A
:101ED00042F8183C0A49029B42F8143C4FF08073C8
:101EE00042F8043C21F00101002342F8081C203A8A
:101EF00083664FF47D430265C0F8B030704700BF81
:101F0000FD4000080023E1EE103AEFF3148323F0C4
:101F1000040383F31488BFF36F8FBFF36F8F074BF6
:101F20009860104681F30988002163B681F3118817
:101F3000BFF36F8F0022002302F0E0F8800300203F
:101F400001B5EFF30580A0F110004FEAC00004498D
:101F5000014409C99847BDE801400249084700000B
:101F60007C4E0008691F0008044B9968D8698842B4
:101F700003D003494FF080520A607047800300206D
:101F800004ED00E0134B9A6A12F0007F9A6A14BFC6
:101F90001E201D2012F0807F9A6A18BF1F2012F4A5
:101FA000002F9A6A18BF212012F4802F9A6A18BF56
:101FB000222012F4003F9A6A18BF232012F4803FB7
:101FC0009A6A6FEA02426FEA12429A6218BF2420AC
:101FD000704700BF00ED00E010B5194B0246986A4B
:101FE0009C6A10F4805F14BF1720162014F4006F51
:101FF0009C6A18BF1820A40509D5986B986A00043C
:1020000004D51AB19A6A22F400429A6219200C4B44
:102010009A6A12F4806F9A6A18BF1A20D2050CD4FB
:102020009B6A13F4005F18BF1C20054A936A43F4AF
:102030007F43936200230B7010BD1B20F5E700BFA8
:1020400000ED00E010B51C4B0246986A9C6A10F047
:10205000100F14BF1120102014F0080F9C6A18BF35
:102060001220A40709D5586B986A000604D51AB146
:102070009A6A22F080029A6213200F4B9A6A12F039
:10208000010F9A6A18BF142012F0200F9A6A18BF25
:102090001520D40658BF9B6A074B9A6A920642BF26
:1020A0005A6A22F400525A629A6A42F0FF029A6215
:1020B00000230B7010BD00BF00ED00E070B5444B75
:1020C0005B689CB00646C3F30803002585F31188BE
:1020D000BFF36F8F02F07F40B0F17F4F11D102F05C
:1020E0000C0008280DD010074CBF0E460125002219
:1020F000033B8DF80720032B05D8DFE803F01E5CB7
:1021000060592E46F3E700249DF807309BB96822FA
:10211000314602A8FEF7CAFC099B002D53D0C3F339
:10212000080222B96FEA53236FEA4323099302A9F5
:10213000204602F036F81CB070BD254BDA6A9107D4
:10214000E1D4DA6A002ADEDBDA6A5200DBD55A69AA
:10215000B16942F480725A61BFF34F8FBFF36F8F42
:102160005A6931F8021C22F480725A61BFF34F8F12
:10217000BFF36F8F4DF60272914209D09A6AD2B2C4
:1021800042B10DF107010120FFF75CFF0446BBE7F8
:102190003468B9E79A6A12F47F4F05D00DF1070150
:1021A0000120FFF719FFF1E79B6AB3F5803FAAD33F
:1021B000FFF7E8FEEAE70DF107010020E4E70DF183
:1021C00007010020EDE723F4FF7323F00103ADE7DF
:1021D00000ED00E0024A536943F010035361704779
:1021E00000ED00E0EFF30880EFF3098101B57246DE
:1021F000FFF764FF01BD00BF044800232021C2187F
:102200000133562B82F80013F9D1704700E100E04A
:10221000202080F3118808484FF40061401880F3B3
:102220000988EFF314800221084380F31488BFF378
:102230006F8FFFF7ADFD0000C0030020084B9B68C7
:1022400083420BD1EFF3058343B1064B5A6842F04A
:1022500080525A605A6A22F400425A6201F0F8BC75
:102260008003002000ED00E02DE9F0410E4E0F4FFD
:10227000054600244FF001082B7818191F280DDCA3
:10228000726908FA00F333EA020207D1736157F862
:1022900030301BB107EBC002516898476B780134AE
:1022A000A342E9DABDE8F081003C0140D001002002
:1022B000044B184400230133994200F8012BFADC47
:1022C000704700BF2C00002010B4064B06490246A0
:1022D0000C6818560123934023430B605DF8044BB0
:1022E000FFF72ABD2C000020003C01401F2806DC1F
:1022F000034901220B68824023EA02030B60704706
:10230000003C014003292AD8DFE801F0020E141F27
:10231000134B01229968824021EA02019960D96831
:1023200021EA0202DA6070470D4B0122996882406F
:102330001143F3E70A4B0122D96882401143D96067
:10234000996821EA02029A607047012303FA00F0BB
:10235000034B9A6802439A60DA681043D86070476A
:10236000003C014010B5074B044653F8300028B933
:1023700043F8341003EBC4035A6010BD6FF00F0034
:10238000FBE700BFD0010020034B002243F83020C0
:1023900003EBC0035A607047D001002010B5214BF9
:1023A00018680B68442B144628D82F2B05D8013BFE
:1023B000052B0DD96FF085001FE0A3F1300101223C
:1023C0008A4019490A4216D1402BF3D1400812E045
:1023D000052BEFD801A252F823F000BF0324000818
:1023E00013240008B5230008F5230008F52300088E
:1023F000F723000800202060002010BDA82BFAD091
:10240000D8E700F095F84FF4C073C008584380082F
:10241000F1E700F08DF84FF4C073C0085843C008CE
:10242000E9E700BF200000201101100070B53C4C0E
:1024300000F096F800F03CFFA3683A4AC3F3031398
:10244000D35C20FA03F53848854201D201F0A2F8A6
:10245000236843F480232360236843F4803323609C
:102460002F4B1A689403FCD59A6802F00C02082AD4
:1024700017D19A6822F0F0029A601A68900707D480
:102480001A6842F001021A60254A13689907FCD5C0
:10249000234B9A6822F003029A609A6812F00C0F9C
:1024A000FBD11F4C236823F080732360636823F4FF
:1024B000403343F480336360636823F0706343F018
:1024C0000063636000F038F8236843F08073236092
:1024D00023689B01FCD5A36823F0F003A360A368E5
:1024E00023F0030343F00203A3600D4CA36803F041
:1024F0000C03082BFAD10C4EB54202D3304601F042
:1025000049F80A4B1E60A36823F4E05343F4805358
:10251000A360A36823F46043A360002070BD00BFE4
:1025200000380240515E000800D8B80520000020A5
:102530000048704700127A00064A0749536819405C
:10254000064B0B435360536823F4403343F480330A
:1025500053607047003802400080BFFF08604000B1
:10256000064B1A6C42F080521A641B6C82B003F066
:1025700080530193019B02B0704700BF00380240B6
:1025800038B5036904465860084D284602F0C0FA81
:1025900040B16168AB680C311B682846984700EA77
:1025A000E07038BD6FF01200FBE700BF444D00083B
:1025B000F7B51746B7F5001F466802690C461D4679
:1025C00024D101F00302043292000F23934043EA26
:1025D0009103DAB23349023251F82220190C02EA8F
:1025E000134391FAA1F2B2FA82F2D340B2689A424E
:1025F00009D12046FFF77AFE2046FFF7C5FE0021ED
:102600002046FFF77FFE002003B0F0BDB7F5800F36
:1026100041D025492046FFF7A5FE00283ED1234A98
:10262000B66892E803006B4683E80300204882689E
:10263000194612689047C0B904F0030304339B00A5
:102640000F229A4042EA9402D3B29B0003F18043E6
:1026500003F59C33110C986820EA124091FAA1F21C
:10266000B2FA82F2964006439E60B5F1806F0ED0BA
:10267000B5F1C06F0DD005F17E4359425941490073
:102680002046FFF73FFE2046FFF71EFEBBE7012175
:10269000F6E70321F4E76FF08500B5E76FF00F0070
:1026A000B2E700BF00380140F1440008DC510008E7
:1026B000444D00082DE9F0471E4F044600EBC106CB
:1026C0000025B44201D1002014E02068C30600F0C8
:1026D0001F0911D4656845F02005C0F3471AC0F3FF
:1026E00043200A2823D857F82080B8F1000F0DD1D5
:1026F0006FF01200BDE8F087B9F1100F04D0B9F106
:10270000110FEAD16568E8E73025E6E7404602F0B8
:10271000FFF90028ECD04B462A460AF00F0140464C
:1027200001F0FDFE002804F10804CADAE2E76FF0C8
:102730001500DFE7A852000810B54FF0E0239A69B2
:1027400019699869094B11F4803F094901D1824206
:1027500006D21A680C6822441A604FF0E02212690F
:102760001B680A681344181A10BD00BFD00200206D
:10277000DC020020094B202283F82320084B42F280
:102780007F521A60074B002018604FF0E0235A6117
:1027900098611A6942F007021A61704700ED00E083
:1027A000DC020020D002002008B5FFF7C5FF0C4B6B
:1027B0000C4A186811680844106000221A600A4A1E
:1027C00013684FF41651C01AB0FBF1F001FB00334F
:1027D000136001F083FBBDE80840FFF7C5BB00BFF5
:1027E000D0020020D8020020D40200202DE9F041C0
:1027F000314E002954D0421C0AD14FF0E022136917
:1028000023F0010313614FF07F433360BDE8F08193
:10281000356801284ADD40F2D268404501DC00F10C
:10282000FF384FF02003EFF3118483F31288BFF3D6
:102830006F8FFFF781FF214F4FF0E0230021D3F886
:1028400018C03B68C2181E4B19601E4B1B68D11A7A
:102850002FD44FF4165000FB081101F515519B1AA7
:102860003F31B1FBF0F100FB0133B3F5806F20D9AC
:1028700015498B4228BF0B464FF0E0213360886931
:10288000013B4B6100238B618445ACEB000338BFF7
:102890005B191A443A6084F31188BFF36F8FB5E770
:1028A000431C3568B5D140F2D260B8E74FF000085C
:1028B000B7E74FF48063DFE7DC020020D802002096
:1028C000D0020020D402002000C3FF0010B54FF05A
:1028D0002003EFF3118483F31288BFF36F8FFFF7A8
:1028E0002BFF074B074A1B6812689B1A034484F3AB
:1028F0001188BFF36F8F4FF41650B3FBF0F010BD8B
:10290000D8020020D4020020684620F007018D463E
:1029100001B5074B1A68520706D56FF004021A601A
:10292000044BD3E900209047BDE80140854670473D
:1029300000200140E002002070B54368046990B0B7
:1029400005460BAA586A002101F001FE002820DB91
:102950000B9B002219791868FFF7ACFE002818DBE2
:1029600039486D6883682E1D1B68314698470028DA
:102970000FDB02A802F007F82B7C3448063B18BF97
:1029800001231B0402A9029300F0C0FC18B16FF0F0
:10299000040010B070BD04A802F011F8287C04A94E
:1029A00001F0CCFF0028F4DB286804A901F0EEFF59
:1029B0000028ECD10BA802F009F828680BA900F058
:1029C000B7FC0028E3D107A802F02AF82B6A43F4E9
:1029D00080130793286807A901F0FFFF0028D6D1CC
:1029E000688A01A901F0ADFF0028D2DB019A69696C
:1029F000286801F0E3FD019AA969286801F0DEFD6D
:102A0000019AE969286801F0D9FD286803AA3146CE
:102A100000F0B8FB0028BCDB2A68936843F0010390
:102A200093602A68536843F08003536000210122B9
:102A30001220FFF78FF9E868FFF77EF90023C4E959
:102A40000433A3611846A4E7444D00080023014065
:102A5000684620F007018D4601B54FF080431A69A2
:102A600092071FD56FF002021A61364801F066FE28
:102A7000431E052B16D8DFE803F01931254A033D24
:102A8000314B9B78012B15BF01234FF0FF33002200
:102A90003C222D493C320A804FF080428870526BB4
:102AA00053438B60BDE8014085467047264B9B78B9
:102AB000052B37D0032B0BBF4FF0FF3301237822B8
:102AC0000022E6E7204B9B78012B2ED0022B15BF6E
:102AD00001234FF0FF330022B422DAE71A4B9B7830
:102AE000032B24D0062B15BF01234FF0FF33002208
:102AF000F022CEE7144B9B78022B1BD0042B15BF82
:102B000001234FF0FF3300224FF49672C1E70E4BC2
:102B10009B78062B11D0052B14BF01234FF0FF33F8
:102B20000022B6E701233C22B3E77822B1E7012374
:102B3000B422AEE70123F022ABE701234FF49672F3
:102B4000A7E700BF44530008FC020020F0B544682A
:102B500005698FB0064605AAE06A002101F0F7FC7E
:102B6000002819DB059B002219791868FFF7A2FDE0
:102B7000002811DB3F488368271D1B6839469847AA
:102B8000002809DB684601F051FF2068694600F023
:102B9000F7FB18B16FF004000FB0F0BD2268936826
:102BA00023F4804323F0070393602268536843F0C3
:102BB000800353602268936823F0700343F040035E
:102BC000936005A801F045FF4FF440330793206858
:102BD00005A901F04CFF0028DCD12268136843F0FE
:102BE000040313602268136A43F00103136222682E
:102BF000D36843F00203D360291D384600F0A8FAD9
:102C00000028C9DBE06801F083FF10B96FF0120003
:102C1000C2E7606901F07CFF0028F7D0E06901F0AD
:102C200077FF0028F2D0706801F088FD431E052B65
:102C300006D8DFE803F01418161C031A00232B80B3
:102C4000A36A2A88A870134400222B8011461C20F6
:102C5000FFF780F8606AFFF76FF800209CE73C23DD
:102C6000EDE77823EBE7B423E9E7F023E7E74FF458
:102C70009673E4E7444D00082DE9F0414468056986
:102C8000A06994B001F044FF20B96FF0120014B0B5
:102C9000BDE8F081606A0CAA002101F058FC002810
:102CA000F5DB0C9B002219791868FFF703FD00285B
:102CB000EDDB69488368261D1B683146984700286C
:102CC000E5DB6946304600F043FA0028DFDB0021EF
:102CD0004EF65F264EF660208AB2009B0132B3FBAF
:102CE000F2F7B74212D800232B6001A801F09EFE34
:102CF000402302932B68039301260596206801A9BF
:102D000000F03EFB68B16FF00400C0E74243B3FB44
:102D1000F2F3013BB3F5803F2B6001F10101DBD2FF
:102D2000E3E70CA801F08BFE60230C932B685B0893
:102D30000F9320680CAA314600F064FB0028E2D112
:102D400020680CAA102100F05DFB0028DBD1206870
:102D50000CAA4FF4807100F055FB0028D3D17023EA
:102D60000C932B68013B0F9320680CAA4FF4805101
:102D700000F048FB07460028C5D12268536843F09D
:102D8000700353602268936943F0080393612268DB
:102D9000936943F4006393612268D36943F00803A5
:102DA000D3612268D36943F40063D3612B6822683E
:102DB000013B136406A801F087FE4FF400614FF455
:102DC0008063CDE906134FF4807308934FF480536A
:102DD000ADF826304FF400538DF824700A93206824
:102DE00006A901F07AFE054600288CD1236A9D428F
:102DF00001D300204BE7E76957F8350007EBC5081A
:102E000001F086FE00283FF440AF57F8350098F8EF
:102E10000410B8F80630D0F810C0D0F80880DCF8FC
:102E20000070DA0754BF43F4B01383F4D01323F4D3
:102E3000801206FA01FEDB074CBF4EEA070727EABD
:102E40000E07CCF80070D8F8003098470028FFF63D
:102E50001EAF0135CAE700BF444D000810B5384C1D
:102E60002068836886B003A95B68984760688368B8
:102E70001B68984702A901A800F098F9DDED035AF4
:102E8000DFED307ADDED046A9FED2F7A94ED156A5F
:102E900094ED040AD4ED034A94ED054AA06865EE6A
:102EA000A77A46EE877A9DED027ADDED016A27EE7C
:102EB000275A05EEE65A66EEA77A36EE456A94ED95
:102EC000065A84ED066A45EE877A25EE000A06EE7C
:102ED000240AD4ED074A94ED166AD4ED0F5A84ED16
:102EE000075A36EE676A04EE240AD4ED0D7A94EDA3
:102EF0000C5AD4ED084A84ED0F6A65EEA77A46EEC7
:102F0000057A30EE240A94ED105AD4ED0E4A84ED81
:102F1000080A44EE857A94ED115AC4ED105A77EE02
:102F2000857A67EE000AC4ED117A836826EE800A7E
:102F300046EEA70A9B6817EE270A984706B010BD11
:102F4000240300203ACD133F3ACD933F70B5124C85
:102F5000124B2360124BA3600025124B63604FF0AD
:102F60007F5604F10C0001216565A5656662A562C6
:102F7000E56201F0ECFC04F130000121A664E56497
:102F8000256501F0E4FC20680749836800221B687E
:102F90009847002070BD00BF240300204C4E00085D
:102FA000644E0008344E00085D2E000810B52DED6B
:102FB000028BF0EE408A20EEA00A08EEA80A044632
:102FC000B0EE608AB5EEC00AF1EE10FA10DB00F048
:102FD000F5FFDFED5C7AB4EEE70AF1EE10FAC1BF5F
:102FE00088EE807A67EE278A88EE007A27EE278AB5
:102FF000DFED557AB0EE680A08EE670ADFED537A26
:1030000068EE270AB6EE007A70EE206AF7EE007AD4
:10301000F5EEC06AF1EE10FAB5EEC00A54DDF1EE3D
:1030200010FA40D536EEC00A022377EEC07A67EE7A
:10303000877A36EEA76A37EE807AD4ED046A237079
:10304000F4EEC66AF1EE10FA76DAD4ED055AF4EE33
:10305000465AF1EE10FAC8BFF0EE465AF4EEC76ACF
:10306000F1EE10FAC4ED015A69DA94ED056AB4EE96
:10307000476AF1EE10FAC8BFB0EE476AF4EEE76AAD
:10308000F1EE10FA84ED026A08DAD4ED056AF4EE86
:10309000676AF1EE10FAC8BFF0EE676AC4ED036A22
:1030A000BDEC028B10BDF5EEC00AF1EE10FA39D579
:1030B00076EEE06A062377EEE67A27EE877A37EE39
:1030C000266A77EE607AB8E7F1EE10FA1ED5F5EED3
:1030D000C00AF1EE10FA0BD970EEE60A032377EE80
:1030E000E07A27EE876A36EE207A76EE667AA4E7F3
:1030F000F1EE406A76EEE06A042377EEE67A27EE98
:10310000876A36EE407A76EE267A96E770EE666A41
:10311000052377EEE67A27EE877A37EE006A76EEB9
:10312000877A8AE777EEE67A012367EE877A36EECA
:10313000A76A37EEA07A80E7F0EE665A8EE7B0EE27
:10314000666A9BE7D7B35D3F3ACD133F3ACD933FD5
:1031500037B504460A488368DB680D466BB101AA9F
:1031600021469847002806DB2268019B402A08BFB9
:103170005B002B60002003B030BD6FF05700FAE712
:10318000444D000808B507488368DB683BB19847A1
:10319000002803DB044B5B686FF0850008BD6FF00F
:1031A0005700FBE7444D000800230140DFED3C7A67
:1031B0003C4BDFED3D4A60EE277A30B5F5EEC07A44
:1031C000F1EE10FA48BFF1EE677ABDEEE77AF0EE65
:1031D000082AB8EEC77AB5EEC00A77EEC77A9FED37
:1031E000337A67EE877AF1EE10FABCEEE77A17EEE3
:1031F000102AC2F3080207EE102A02F18004B8EE8A
:10320000477AC4F3080403EB840503EB820477EEEA
:10321000C77A95ED014A95ED007AD4ED005A94ED08
:10322000015A34EE473AB1EE656A76EE456A73EEBE
:10323000033A56EEA43A76EE066A26EE246A76EE55
:10324000C56A66EEA46A53EE226A43EEA76AF0EE00
:10325000473A06EEA76A77EE046A46EE273A35EE5D
:10326000656AC1ED003A36EE065A16EEA45A77EEBC
:10327000076A27EE247A76EE846A66EEA46A56EE32
:10328000226A45EE276A06EEA77AF0EE656A47EEF7
:10329000276A48BFF1EE666AC0ED006A30BD00BF24
:1032A000610B363B20540008DB0F493C0000004412
:1032B00008B513498B6803F00C03042B1CD0082BB2
:1032C0001CD14A684B68496813F4800314BF0D4849
:1032D0000D48C1F3881118BF002302F03F02A1FB83
:1032E0000001FDF7C9FB064B5B68C3F301430133E3
:1032F0005B00B0FBF3F008BD0248FCE70248FAE7C8
:103300000038024000127A000024F400074B024605
:10331000986810F0010001BF5368096823F4403336
:103320000B430CBF53600120704700BF00200140D9
:103330008368DB071FD44B68CBB143688A6823F4EA
:1033400068431343436082680C4B1340CA681343BD
:103350000A6913430A6802F0706213438360C36A08
:103360004A6823F470031343C36200207047436824
:1033700023F46843E6E70120704700BFFDFCFFC06F
:103380001D4A036890420ED0B0F1804F0BD0A2F5D9
:103390007C42904207D002F58062904203D002F551
:1033A0008062904212D14A6823F070031343CA68C6
:1033B00023F44073134303608B68C3620B888362FA
:1033C0000D4B984211D10B6903630EE00B4A9042FA
:1033D000EDD00B4A9042EAD002F580629042E6D0EE
:1033E00003608B68C3620B888362436943F0010307
:1033F00043610020704700BF0000014000400140D1
:1034000000440140B1F5807F30B500F08F8005D8D1
:10341000012929D0102957D0012030BDB1F5805F96
:10342000FAD1036A23F480530362036A4468C169D2
:10343000156821F4E64141EA0521156923F400539A
:1034400043EA0533556823F4805343EA0533504D6E
:10345000A84202BF956924F4804444EA851444607C
:10346000C161D26802642CE0036A23F001030362A5
:10347000036A41688469156824F073042C43156954
:1034800023F002032B43556823F001032B43404DE7
:10349000A84212D1556923F0080343EA85039568D1
:1034A00023F0040343EA8503956921F480712943DD
:1034B000D56921F4007141EA450141608461D26817
:1034C000426303620020A8E7036A23F0100303624B
:1034D000036A41688469156824F4E64444EA0524D3
:1034E000156923F0200343EA0513556823F0100300
:1034F00043EA0513264DA84213D1556923F08003F2
:1035000043EA8513956823F0400343EA85139569E0
:1035100021F4806141EA8501D56921F4006141EA25
:10352000C50141608461D2688263CAE7036A23F4FB
:1035300080730362036A4168C469156824F07304E8
:103540002C43156923F4007343EA0523556823F4DB
:10355000807343EA05230E4DA84213D1556923F425
:10356000006343EA8523956823F4806343EA852357
:10357000956921F4805141EA0511D56921F4005182
:1035800041EA45114160C461D268C26399E700BF56
:1035900000000140002876D03C4B1A6802F44042FB
:1035A000B2F5404F20D13A4A904215D8394A90425C
:1035B00007D91A6802F44042B2F5004F5CD10220EC
:1035C0001FE0354A90421A6802F4404247D9B2F5EA
:1035D000004F4CD1012014E01A6802F44042B2F5C9
:1035E000004F3FD103200CE01A6802F44042B2F5CC
:1035F000004F22D1274A90423ED8274A90422ED9E6
:103600000020224B1B68012838BF012003F44043EF
:10361000B3F5804F1FD0214A136823F007030343FB
:103620001360136803F0070398421CBF136803F08C
:103630000703C01A18BF012070471B6803F44043FA
:10364000B3F5804F0CD1134B98421AD8124B9842C5
:103650004FF00000DFD9012838BF0120DBE71B68ED
:103660000020D8E71B68032003F44043D0E71B6821
:10367000012003F44043CBE71B68022003F44043DE
:10368000C6E70220C7E70120704700BF0070004076
:10369000804A5D050090D00380C3C901003C024010
:1036A000014B986860307047800300200F4B70B565
:1036B00053F82040013053F82060A64200D870BD76
:1036C000D4E90035284698476DB138B10028B8BF15
:1036D0004042EB68FF28A8BFFF201870EA685378C3
:1036E00043F0010353700834E7E700BF285C00088B
:1036F00008B50A4B012203201A70FFF7D7FF00F02C
:1037000057FC0420FFF7D2FF00F0DCF8FEF764FA64
:10371000034A137B23F00103137308BDBC0300208D
:103720001001002008B50348034A0021121A01F0D5
:1037300021FA08BD58000020C003002070B5144EC7
:10374000144D1549B82386B003FB006601220023FF
:10375000CDE904230F22CDE9023201931C2303FBA0
:1037600000554FF4A072044602FB00110B4B00956C
:10377000304600F07DF8737B2C7523F004037373DF
:10378000074BEE60013403EBC4236B6006B070BDE1
:103790005800002080030020C00B00207D4B000853
:1037A000C003002080B50020B4B0FFF77FFF294B95
:1037B00083F30888284C294E6369294F43F400732A
:1037C0006361F02384F8223000251023E377257607
:1037D0006576A57684F82050636A43F4E02363623B
:1037E000FEF7F8FCFEF794FA4FF0FF33A362E362B2
:1037F00040F20113ADF8243006ABB3601F9501F021
:1038000086F90120FFF752FF0220164CFFF74EFF0A
:1038100000F00CFA144BF461059301231349009551
:10382000CDE903534FF480623B46CDE90155204674
:1038300000F01EF8627B064622F004022046627306
:1038400001F0DCF92846FFF779FF3A463146204679
:10385000FEF758FBC00B002000ED00E080030020C5
:10386000F136000810010020495D0008000D00201D
:103870007FB50C9E067307320426467300F1580587
:103880000B9E867322F00702C0E916558E1800259C
:103890000A9A8560C0E90655C5730292099A019299
:1038A000089A009232460446FEF70CFB044B65650D
:1038B0009B6803B15B6E6366304604B070BD00BFA9
:1038C00080030020F0B5224C224D87B02646AE4240
:1038D00004F12C040BD300F079F91D4C1E4F0A267D
:1038E000AC4220D307B0BDE8F04000F083B954F8F3
:1038F000043C059354F80C3C049354F8103C039397
:1039000054F8143C029354F8183C019354F81C3CAE
:10391000009354E9092354E90B01FFF7A9FF54F878
:103920002C3C5E65D2E7626A531C09D022EAE2723F
:1039300082FB062352EA0301206803D100F028F934
:103940002C34CDE73946183000F04AFAF8E700BFCA
:103950002C5100082C510008B94B000838B5074D10
:103960002C6854B1FEF7B2FF054B04441C61286873
:103970000021BDE8384001F07DB938BDB403002016
:103980008003002038B50D4D2B4653F8204F9C4244
:1039900000D004B9EC68AB6838B95A7BD20604D1C0
:1039A000A26912B9DA897F2A05D89C4202D0204642
:1039B000FFF7D4FF2346EB6138BD00BF8003002032
:1039C00070B590F90D20437B002A014604DA03F01C
:1039D0007F03437301F0DEF84B7B154A63F07F03EE
:1039E00010464B7350F8203F546A834208BF0023AF
:1039F00023B9C1E90004216051620CE091F90E5035
:103A000093F90E60B5420ED0AE420CDD5868C1E9A4
:103A10000030016059609068431A5842BDE8704018
:103A20005841FFF7AFBF9C42E3D01B68E0E700BFFF
:103A30008003002070B490F90D30427B002B29DB0D
:103A4000D30627D183692BBB134962F07F024273EF
:103A50000A4652F8204F944218BF23464C6A23B9B5
:103A6000C0E90024206048620CE090F90E5093F900
:103A70000E60B5420AD0AE4208DD5A68C0E9003295
:103A80001060586070BC0020FFF77CBFA342E7D0F5
:103A90001B68E4E770BC70478003002010B54FF04E
:103AA0002003EFF3118483F31288BFF36F8F0A238F
:103AB000002800FB03F302DD022BB8BF0223074AF4
:103AC0000020106106480360064B90681960FFF7FC
:103AD00045FF84F31188BFF36F8F10BD8003002072
:103AE000B4030020B003002038B54FF02003EFF3FB
:103AF000118583F31288BFF36F8F174B174A9C68A9
:103B000011688C4207D12046FFF728FF85F3118802
:103B1000BFF36F8F38BD00211160114A1268C2B126
:103B2000E2897F2A15D8627BD20612D10D4A94F918
:103B30000E10126891420CDB0B4A944209D01A69AC
:103B4000824203DC2046FFF73BFFDCE7121A1A61D2
:103B5000DCE70022FBE700BF80030020AC0300206D
:103B6000B4030020B00300205800002049B9EFF34F
:103B7000058030B9054BDA699B689A4201D0FEF79F
:103B800035B981F31188BFF36F8F70478003002030
:103B900010B54FF02002EFF3118482F31288BFF3C7
:103BA0006F8F427B510704D484F31188BFF36F8F6A
:103BB00010BD22F004024273FFF73CFF2146024889
:103BC000BDE81040FFF7D2BFBD0300204FF0200337
:103BD000EFF3118183F31288BFF36F8F044B9A6860
:103BE000D37B013BD37381F31188BFF36F8F704791
:103BF0008003002010B54FF02003EFF3118483F30E
:103C00001288BFF36F8F084B9A68D37B0133D3734D
:103C10000020FFF7B7FE84F31188BFF36F8FBDE874
:103C2000104001F007B800BF80030020044B0021C2
:103C300003F12002C3E908220846FFF72FBF00BFA7
:103C400080030020014B9868704700BF800300206C
:103C50002DE9F04104464FF02003EFF3118683F382
:103C60001288BFF36F8F037BD9070BD586F31188BA
:103C7000BFF36F8F404080F311884FF0040002DFE4
:103C8000BDE8F081437B1A0704D586F31188BFF3A2
:103C90006F8FF5E723F0200242F00801D20920D10E
:103CA0004173A36813B1204600F07CFF04F11800B3
:103CB00000F0CAFF04F158074FF00008A56DBD429F
:103CC00000D0B5B90120FFF75DFE104B9B68A34201
:103CD000DBD1EFF30583002BD7D13046FEF786F812
:103CE000D3E703F05F0343F00803437300F052FF90
:103CF000D7E7284600F056FF05F1180000F0A4FFB2
:103D0000C5F86C802846FFF795FED7E780030020B2
:103D100008B50648064A0749121A00F02DFFBDE80B
:103D20000840054A0549064800F026BF000000206B
:103D300057000020A85E000800000000A85E0008F0
:103D400000000020034B1B680BB9FEF7BFBD00202D
:103D5000704700BFB803002010B5114B1C689C428F
:103D60000AD1FFF7EFFF6FF000400E4B1B6913B154
:103D70009842A8BF184610BDFFF7E4FF002CF2D010
:103D8000D4E904321B1A62EBE072B3F1004F72F116
:103D90000001E8DA002AACBF18460020E5E700BFC2
:103DA000240000208003002030B570B10B4B5B680D
:103DB00098420AD0036843B1D3E90421D0E904450D
:103DC000121941EB0501C3E90421D0E90032136067
:103DD0005A600023C0E9003330BD00BF240000203A
:103DE000B3F1FF3F08BFB2F1FF3FF8B504461D46EF
:103DF000164661D081604FF02003EFF3118783F303
:103E00001288BFF36F8F013275F1FF3324DA304926
:103E1000D1E900206FF001039B1A4FF0FF3262EBF3
:103E200000009E1B60EB0500012E70F1000301DA1B
:103E300001260020C4E90460264ED6F800C075684B
:103E4000B44508BF4FF0000CBCF1000F0DD1C4E920
:103E500000652C6074601CE0FFF774FF013645F1CB
:103E60000005361845EBE070E4E7DCE90420D4E90E
:103E70000431934271EB000E1FDAD21ADCF80430E1
:103E800060EB0100CCE90420C4E900C31C60CCF85D
:103E900004403368B3420BD09C4209D1FFF75CFF6A
:103EA00018B10D4B1B69834202D00021FEF79EFC26
:103EB00087F31188BFF36F8FF8BD9B1A61EB000188
:103EC000AC45C4E90431C2D0DCF800C0BCE700BF97
:103ED000C801002024000020800300202DE9F84FB5
:103EE0000446FFF701FE4FF02003EFF3118783F341
:103EF0001288BFF36F8FDFF8B4902A4ED9F8000014
:103F00003460294C484508BF00204FF0000A4FF0AC
:103F1000000BD4E9001E33683D4688B3D0E904871E
:103F20004FEAE37C43457CEB070206DAB8EB030279
:103F300067EB0C07C0E9042722E018EB01014EEB08
:103F4000E873C0E904ABC4E90013FFF72DFF85F364
:103F50001188BFF36F8F836898474FF02003EFF30A
:103F6000118583F31288BFF36F8F3368D9F800008F
:103F7000A3EB080348452F463360CAD1D4E9001E9D
:103F800059184EEBE373C4E9001300243460FFF7C3
:103F9000E3FE2146FEF72AFC85F31188BFF36F8FFD
:103FA000BDE8F88FB8030020C801002024000020DD
:103FB000014800F096B800BF645E000808B52DED1A
:103FC000028BB0EE408A00F021F80E4B93F90030DE
:103FD00001330BD0B4EE488AF1EE10FA06D6DFEDCD
:103FE0000A8AB4EEE88AF1EE10FA02D4BDEC028B34
:103FF00008BD00F0E9F888EEA80ABDEC028B212389
:10400000036008BD3C00002000000000B1EEC00AC3
:10401000704700BF830730B547D0541E002A3ED0FA
:10402000CAB2034601E0013C39D303F8012B9D07D6
:10403000F9D1032C2CD9CDB205EB05250F2C05EBBE
:10404000054535D9A4F1100222F00F0C03F1100E32
:10405000E6444FEA121C1A46156055609560D5601B
:1040600010327245F8D10CF1010214F00C0F03EB81
:10407000021204F00F0C13D0ACF1040323F003037D
:104080000433134442F8045B9A42FBD10CF003045E
:104090002CB1C9B21C4403F8011B9C42FBD130BDBA
:1040A00064461346002CF4D1F9E703461446C0E7F2
:1040B0001A46A446E0E700BF71B1034600EB010CCD
:1040C00001E0634506D01A46013311780029F8D182
:1040D000101A7047181A704708467047704700203A
:1040E00070470FB407B504A951F8040B0191FDF70F
:1040F0007FFD03B05DF804EB04B07047044608B5DB
:10410000084611461A46A047FFF79CFDFEF796F8B1
:10411000D0E9002130B54FF03333A2FB0324D5188A
:1041200043EB0405A1FB0313521844EB030452199B
:1041300044F10002891843F10003C0E9001330BDC7
:1041400010B50A68002A03460FDD013A0A601A68B2
:1041500044680A20A2FB001200FB0422100F22F088
:104160007042C3E90012303010BD3020FCE72DE969
:10417000F0410746884615461E461446B44205D30C
:104180000EB1601B08E02378002BFAD014F8010B65
:104190004146B8470028F1DABDE8F08170470020B9
:1041A000704700F0CCBC0146006800F0C8BC00219C
:1041B0000120FFF7F6BF08B5FDF7E6FDBDE80840B2
:1041C000FDF7D2BE00207047FFF76ABA08B5062295
:1041D00001210020FEF76CF8002211460620FDF7B1
:1041E000B9FD012108460722FEF762F800221146B8
:1041F0000720FDF7AFFD082201210220FEF758F845
:10420000002211460820FDF7A5FD09220121032007
:10421000FEF74EF8002211460920FDF79BFD0A2209
:1042200001210420FEF744F8002211460A20FDF780
:1042300091FD052108461722FEF73AF800221146A3
:104240001720FDF787FD282206210A20FEF730F807
:10425000002211462820FDF77DFD002008BD0B68D7
:10426000A3F13002782A9FBF03F1804303F50E3398
:1042700049681A689DBF0A4300201A606FF08500E4
:1042800070470B68A3F13002782A9FBF03F1804387
:1042900003F50E3349681A689DBF8A4300201A60EF
:1042A0006FF0850070470B68022B03D823B96FF0BD
:1042B00085007047062BFAD14A68FF2A0DD0D3B289
:1042C00003F1804303F50E33C2F302411868C2F3D1
:1042D000042201FA02F202431A6000207047436888
:1042E0005B681B690B600020704743685B68586916
:1042F00042400A4042405A610020704743685B6870
:1043000000209961704743685B6809049961002047
:10431000704743685A6853694B40536100207047A7
:1043200010B503699868F8B1884219D1DC6808684B
:104330009860A14200D1D860002008602AB19A6834
:104340000A60DA68996002B9D960002010E0814201
:1043500006D108682060D8688142EDD1DC60EBE7C7
:10436000044600680028F2D1002AE8D16FF0150059
:1043700010BDF0B544680120676888401E46C2F34E
:10438000801327EA00078B403B43636090FAA0F755
:10439000B7FA87F7D4F808C04FF0030E7F000EFA83
:1043A00007F72CEA070C90FAA0F7B7FA87F7C2F3E1
:1043B000C1137F00BB4043EA0C03A36090FAA0F353
:1043C000B3FA83F3E7685B000EFA03F327EA030707
:1043D00090FAA0F3B3FA83F302F030055B00C2F366
:1043E00041229A403A43202DE26016D107292BDC66
:1043F00090FAA0F3226A2BB3B3FA83F39B000F2148
:1044000001FA03F322EA030290FAA0F3B3FA83F36A
:104410009B0006FA03F31343236290FAA0F3B3FA66
:1044200083F3226890FAA0F05B000321B0FA80F0D9
:104430002D0901FA03F3400022EA030385401D43DE
:104440002560F0BD2B46D9E7030A616A93FAA3F20F
:1044500082B1B2FA82F292000F2793FAA3F3B3FA71
:1044600083F307FA02F29B0021EA02029E40164300
:104470006662D2E72A46EEE738B5044690030D4659
:10448000134617D591070ED55A072ED55022D806B8
:104490000BD542F4007219031AD5616801234968EB
:1044A000AB408B610DE01022F1E79906F3D542F4A1
:1044B0008062F0E7DA0313D5D80613D4C3F34013B0
:1044C0009A02606800232946FFF753FF002038BD99
:1044D0005B03F6D50121A9402046FFF714FFF0E762
:1044E0003022EEE74FF40072EBE76FF08500EEE765
:1044F00070B50B46896821B101255E680C6885405E
:1045000001B970BD8A682A4002D04B68304698478E
:104510001CB1236821461C46F2E72346FAE7F8B5AA
:104520001F46044640680E461546FFF722FF112F2E
:1045300007D101212B0501FA06F104D563685B68F8
:1045400099610020F8BD2046FFF7DDFEF9E730B5A0
:10455000036813600579046804EBC504A34202D321
:104560006FF0010030BD5C798C4201D00833F0E778
:104570000020F7E70369C3E9001270470269436846
:104580009173186849080323B1FBF3F303EB43036A
:10459000C91AC9B2043152F8213083637047704799
:1045A00043681A68536823F0800353607047436878
:1045B0001A68536843F080035360704770B54FF03A
:1045C000007301F0007493FAA3F3B3FA83F3DC40B1
:1045D0000C3001F0F8714FF0F87393FAA3F3B3FACB
:1045E00083F350F8245021FA03F3072606FA03F365
:1045F00025EA03054FF0F87393FAA3F3B3FA83F3B4
:10460000D9408A402A4340F8242070BD7047F0B555
:10461000456807692A684FF480704FF4407393FA35
:10462000A3F3B3FA83F352F83C4F20FA03F3A4B296
:1046300052F82300BB7B013B80B2052B55D8DFE845
:1046400003F04903033E3E493A89BF89161B3A44A9
:10465000A21A3B1A024436B21BB212B22C7C0220C0
:1046600007EE906A013C00FA04F4B8EEE77A07EE30
:10467000904AF8EE677AC7EE276A07EE902AC1EDF6
:10468000006A2A7C013A00FA02F2B8EEE77A07EEF5
:10469000902AF8EE677AC7EE276A07EE903AC1EDE6
:1046A000016A2B7C013B984007EE100AF8EEE77A8E
:1046B000B8EE477AC7EE876AC1ED026AF0BD3B8962
:1046C0007F891E1A3B44E31A3A1B034436B212B2E6
:1046D0001BB2C3E77E89BF89321B3E44A41B3B1A31
:1046E000204412B21BB206B2B8E700231A461E4697
:1046F000B4E713B50C46836801A95B68984738B9DD
:10470000012303FA04F1019B194214BF0120002088
:1047100002B010BD03691B8800EE103AB8EE400AE3
:1047200070470269D2E90132B3FBF2F30622B3FB10
:10473000F2F300EE103AB8EEC00A704770B50546C5
:1047400090F82010C069FFF7D4FF297E06466869FB
:10475000FFF7CFFF297C4400E868FFF7CAFF04F4A5
:10476000FF7444EA860464B22043C0B270BD70B5E1
:1047700004694568201DFEF719FCD4ED007A94ED1C
:10478000027A2B68F8EE677A67EE877AFCEEE77AB2
:10479000C3ED0D7AD4ED007A94ED037A2B68F8EE30
:1047A000677A67EE877AFCEEE77AC3ED0E7AD4ED8E
:1047B000007A94ED047A2B68F8EE677A67EE877AD0
:1047C000FCEEE77AC3ED0F7AA86921798368BDE82A
:1047D00070409B681847012303FA01F103691B68C5
:1047E000194218BF82F0010212B18368DB681847D2
:1047F00083681B69FBE738B544682268136823F0B7
:10480000010313602268536C23F40043536422684D
:10481000136A23F0010313622268136A23F0100362
:1048200013622268136A23F480731362237B73B1CB
:104830002268136A23F0040313622268136A23F0C8
:10484000400313622268136A23F4806313622268B0
:10485000136A23F4805313620025236AAB4200D805
:1048600038BDE36903EBC50153F83500097900222F
:10487000FFF7B1FF0135F0E770B505694468281D01
:1048800000F051F805212971A06983689B68984759
:104890000026236AB3423BD82B6822685B08536327
:1048A0002B6822685B0893632B6822685B08D363DC
:1048B0002268136A43F0010313622268136A43F00B
:1048C000100313622268136A43F480731362237B1C
:1048D00073B12268136A43F0040313622268136AF7
:1048E00043F0400313622268136A43F48063136247
:1048F0002268136A43F4805313622268536C43F4B2
:10490000004353642268136843F00103136070BDD1
:10491000E36903EBC60153F8360009790122FFF77A
:104920005AFF0136B5E7002303700023436083601C
:10493000C36003614FF07E53436170476FF08500A1
:1049400070476FF0850070476FF085007047D0EDBD
:10495000067A90ED077AD0ED086A37EE877AF1EEA5
:10496000677A37EE267AC0ED026A80ED007A36EE7D
:10497000A67A77EEC77AC0ED017A19B10023C36039
:1049800003614361704700230360704730B50246FE
:10499000806810F0010010D154680B688D6824F015
:1049A00040742B4324F48074234353609368496814
:1049B00023F400630B43936030BD0120FCE7002328
:1049C000C0E900334FF48073836070470023C0E96F
:1049D0000033C0E90233036170478368DB071DD4ED
:1049E0004B68CA68B3B1436823F4A05313438A6881
:1049F0001343436082680B6822F47C1203F4702333
:104A000013438360836B4A6823F440131343836327
:104A100000207047436823F4A053E9E70120704762
:104A20000023C0E90033C0E90233704700234FF090
:104A3000FF32C0E902230380436003617047002313
:104A4000C0E90033C0E90233C0E90433C0E90633EA
:104A5000704700230122C0E900234FF48032C0E9EF
:104A60000223C0E90433C0E906230362704730B56E
:104A7000036A23F0110303624D8A4C898269036A39
:104A80002C43CD8922F0FF022C4314430A6A8D691E
:104A9000120A42EA1522CD6924F47F4442EA152223
:104AA00022434C6823F0AA0323434C69096843EA74
:104AB0000413846824F0070443F011032143816048
:104AC00082610362002030BD0023C0E90033C0E9E9
:104AD000043383600373C38170478A680B7B13437D
:104AE0004A6823F4806313430A6823F40063134382
:104AF000CA8923F4805313430A6923F400531343F0
:104B00004A6923F4404313434364002070477047CD
:104B100040B1C368587810F001001EBF1878B0FA91
:104B200080F0400970474FF02002EFF3118382F3C9
:104B30001288BFF36F8FFEE708B5FFF7F4FFF8B5F3
:104B400005460E464FF02003EFF3118783F31288DA
:104B5000BFF36F8FFFF776F8314604462846FFF71C
:104B6000EBFF87F31188BFF36F8F2046BDE8F84055
:104B7000FDF764BBFFF74EBAFBF798BF08B54FF0DF
:104B80002002EFF3118382F31288BFF36F8FFDF7DA
:104B9000C5F8F4E7D0E9003213605A600023C0E999
:104BA0000033704708B5FFF7F5FF437B23F002039E
:104BB00043730023836008BD10B501464FF0200306
:104BC000EFF3118483F31288BFF36F8F10F80B3C5F
:104BD00013F0280F0DD151F8103C18380BB1FFF726
:104BE000E1FF11F80B3C23F0140301F80B3CFEF736
:104BF00021FF84F31188BFF36F8F10BD10B54FF004
:104C00002003EFF3118483F31288BFF36F8FFEF755
:104C100011FF84F31188BFF36F8F10BD034620B9D5
:104C2000EFF305820AB9FDF7E1B883F31188BFF30A
:104C30006F8F70474FF02003EFF3118083F31288DA
:104C4000BFF36F8FFFF7EABF10B54FF02002EFF30D
:104C5000118482F31288BFF36F8F03683BB1FFF7B3
:104C6000A3F8002084F31188BFF36F8F10BD6FF09D
:104C70001500F7E770B504460D464FF02003EFF33B
:104C8000118683F31288BFF36F8FFFF765F8012851
:104C900007DDA04205DBA0422946A8BF2046FDF75C
:0C4CA000A5FD86F31188BFF36F8F70BD77
:084CAC0034BFFF7F010000008E
:104CB400D11C0008000000009F4100080000000013
:104CC4002D240008444D0008CD4100085C4D000827
:104CD40081250008744D0008812500088C4D0008CA
:104CE40081250008A44D000881250008BC4D00085A
:104CF40081250008D44D000881250008EC4D0008EA
:104D040081250008044E0008812500081C4E000877
:104D14007527000800000000C541000800000000DD
:104D24004D2B0008344E0008392900084C4E000869
:104D3400792C0008644E00084D2F00080000000084
:104D4400915D000800000000040000203F000020E6
:104D54000000000096510008735D00080000000088
:104D6400000000003D000020D00100209051000808
:104D74009E5D0008E45100088452000841000020B0
:104D84005002002088510008AC5D0008F85100086A
:104D94008452000843000020600200208051000873
:104DA400BA5D00080C520008845200084500002037
:104DB4007002002078510008C85D000820520008E5
:104DC400845200084700002080020020705100082F
:104DD400D65D0008345200088452000849000020BF
:104DE4009002002068510008E45D00084852000861
:104DF400845200084B000020A002002060510008EB
:104E0400F25D00085C520008845200084D00002046
:104E1400B002002056510008005E000870520008DD
:104E2400845200084F000020C00200204C510008AA
:104E34002A5E0008445300089C53000853000020D5
:104E4400FC020020405100080E5E0008D452000805
:104E54002453000851000020E002002036510008CD
:104E64003F5E0008A45300081454000855000020B5
:084E7400080300202C51000886
:104E7C0000000000AF41000800000000AF41000836
:104E8C0000000000AF41000800000000AF41000826
:104E9C0000000000AF41000800000000AF41000816
:104EAC00715D0008692200086F5D00086922000826
:104EBC006D5D0008692200086B5D0008692200081E
:104ECC00695D00086922000800000000AF4100087D
:104EDC0000000000AF41000800000000AF410008D6
:104EEC0000000000AF41000800000000AF410008C6
:104EFC0000000000AF41000800000000AF410008B6
:104F0C0000000000AF41000800000000AF410008A5
:104F1C0000000000AF41000800000000AF41000895
:104F2C0000000000AF410008675D0008692200081E
:104F3C0000000000AF41000800000000AF41000875
:104F4C0000000000AF41000800000000AF41000865
:104F5C0000000000AF41000800000000AF41000855
:104F6C0000000000AF41000800000000AF41000845
:104F7C0000000000AF41000800000000AF41000835
:104F8C0000000000AF41000800000000AF41000825
:104F9C0000000000AF41000800000000AF41000815
:104FAC0000000000AF41000800000000AF41000805
:104FBC00655D00086922000800000000AF41000890
:104FCC0000000000AF41000800000000AF410008E5
:104FDC0000000000AF41000800000000AF410008D5
:104FEC0000000000AF41000800000000AF410008C5
:104FFC0000000000AF41000800000000AF410008B5
:10500C0000000000AF41000800000000AF410008A4
:10501C0000000000AF41000800000000AF41000894
:10502C0000000000AF41000800000000AF41000884
:10503C0000000000AF41000800000000AF41000874
:10504C0000000000AF41000800000000AF41000864
:10505C0000000000AF41000800000000AF41000854
:10506C0000000000AF41000800000000AF41000844
:10507C0000000000AF41000800000000AF41000834
:10508C0000000000AF41000800000000AF41000824
:10509C0000000000AF41000800000000AF41000814
:1050AC0000000000AF41000800000000AF41000804
:1050BC0000000000AF41000800000000AF410008F4
:1050CC0000000000AF41000800000000AF410008E4
:1050DC0000000000AF41000800000000AF410008D4
:1050EC0000000000AF41000800000000AF410008C4
:1050FC0000000000AF41000800000000AF410008B4
:10510C0000000000AF41000800000000AF410008A3
:10511C0000000000AF41000800000000AF41000893
:10512C0001000C0000800080FF7F010000800080E7
:10513C000D00FF7F010009000A0000800080FF7F46
:10514C000100008000800B00FF7F010000800080C8
:10515C000B00FF7F010000800080FF7F01000080BA
:10516C000080FF7F010000800080FF7F0100008035
:10517C000080FF7F010000800080FF7F0100008025
:10518C000080FF7F00800080FF7F00800080030094
:10519C000400050006000700080009000A000B00C7
:0651AC000C000D00FF7F66
:0251B200FFFFFD
:1051B4004E5D000800000000165E000800000000BC
:1051C400335E000800000000615E0008000000007B
:0851D400455E00080000000028
:1051DC004400000000400000FFFF0000001C0240E3
:1051EC00070000003000000080000000FFFF0000FE
:1051FC0000180240060000003000000040000000D3
:10520C00FFFF000000140240050000003000000009
:10521C0020000000FFFF000000100240040000000E
:10522C003000000010000000FFFF0000000C0240E6
:10523C00030000003000000008000000FFFF000029
:10524C0000080240020000003000000004000000D2
:10525C00FFFF0000000402400100000030000000CD
:10526C0002000000FFFF00000000024000000000F0
:10527C00300000000100000079440008DF42000803
:10528C00EB420008FD4200080743000813430008E6
:10529C00B125000821430008000000001C4E000846
:1052AC00044E0008EC4D0008D44D0008BC4D00081D
:1052BC00A44D00088C4D0008744D0008000000003F
:1052CC00000000000000000000200140440000002D
:1052DC0000010000120000000C000300010030026D
:1052EC000C0060000F00F00000000100FC520008F0
:1052FC0004530008010000000C53000803000000D8
:10530C00300000000000000050040000000000000D
:10531C00B004000000000000754500080F460008AE
:10532C007D450008591B00089F4500080D460008E4
:10533C00A1450008AF4500080000004040000000F7
:10534C00010000001C4E00080F000000044E000875
:10535C0003000000044E00080A0000001C000000BE
:10536C003C000000745300087C530008010000004E
:10537C008453000803000000E1010000000000005D
:10538C00610200000000000041030000000000006A
:10539C0015470008234700080000014044000000A6
:1053AC000100000000000000000000009E02000050
:1053BC004C4E0008CC53000803000000E4530008D6
:1053CC00044E00080D000000044E00080E00000002
:1053DC00044E00080F000000EC5300080100000010
:1053EC00F45300080400000001010000000000005C
:1053FC00210100000000000041010000000000003D
:10540C006C0100000000000079480008F747000814
:10541C006F47000800000000920E493CB10AC93CDD
:10542C002BC3163D2EFB483D752B7B3D04A9963DA9
:10543C0080B6AF3D36BDC83D2FBCE13D73B2FA3DE1
:10544C0087CF093E8340163EB5AB223EA2102F3EBD
:10545C00CF6E3B3EC2C5473E0115543E135C603EC9
:10546C007F9A6C3ECCCF783EC07D823E938E883E38
:10547C00229A8E3E32A0943E86A09A3EE59AA03E99
:10548C00128FA63ED47CAC3EEF63B23E2A44B83EAB
:10549C00491DBE3E15EFC33E53B9C93ECA7BCF3E34
:1054AC004136D53E80E8DA3E4F92E03E7533E63E1B
:1054BC00BBCBEB3EEA5AF13ECBE0F63E275DFC3E21
:1054CC00E4E7003F3D9C033F824B063F9BF5083FC2
:1054DC006B9A0B3FDA390E3FCDD3103F2A68133F3E
:1054EC00D9F6153FC07F183FC6021B3FD17F1D3F29
:1054FC00CBF61F3F9967223F25D2243F5636273FD4
:10550C001594293F4AEB2B3FDE3B2E3FBB85303FAA
:10551C00C9C8323FF304353F233A373F4268393F1D
:10552C003B8F3B3FF9AE3D3F67C73F3F70D8413F94
:10553C0001E2433F03E4453F65DE473F12D1493F5B
:10554C00F8BB4B3F029F4D3F207A4F3F3D4D513FA3
:10555C004918533F31DB543FE595563F5348583F6C
:10556C006AF2593F1A945B3F532D5D3F05BE5E3F77
:10557C002146603F97C5613F5A3C633F59AA643F3F
:10558C00880F663FD86B673F3CBF683FA7096A3FEF
:10559C000C4B6B3F5E836C3F93B26D3F9ED86E3F5E
:1055AC0073F56F3F0809713F5213723F4714733FF5
:1055BC00DD0B743F0BFA743FC6DE753F07BA763FBE
:1055CC00C58B773FF853783F9812793F9DC7793F49
:1055DC0002737A3FBE147B3FCDAC7B3F283B7C3FB4
:1055EC00C9BF7C3FAC3A7D3FCCAB7D3F23137E3FA4
:1055FC00B0707E3F6DC47E3F580E7F3F6D4E7F3F37
:10560C00AB847F3F0FB17F3F97D37F3F43EC7F3F0E
:10561C0011FB7F3F0000803F11FB7F3F43EC7F3F3E
:10562C0097D37F3F0FB17F3FAB847F3F6D4E7F3F62
:10563C00580E7F3F6DC47E3FB0707E3F23137E3F7C
:10564C00CCAB7D3FAC3A7D3FC9BF7C3F283B7C3F18
:10565C00CDAC7B3FBE147B3F02737A3F9DC7793F35
:10566C009812793FF853783FC58B773F07BA763F4E
:10567C00C6DE753F0BFA743FDD0B743F4714733F66
:10568C005213723F0809713F73F56F3F9ED86E3FFE
:10569C0093B26D3F5E836C3F0C4B6B3FA7096A3F27
:1056AC003CBF683FD86B673F880F663F59AA643F81
:1056BC005A3C633F97C5613F2146603F05BE5E3F44
:1056CC00532D5D3F1A945B3F6AF2593F5348583F44
:1056DC00E595563F31DB543F4918533F3D4D513F03
:1056EC00207A4F3F029F4D3FF8BB4B3F12D1493FB1
:1056FC0065DE473F03E4453F01E2433F70D8413F3D
:10570C0067C73F3FF9AE3D3F3B8F3B3F4268393F58
:10571C00233A373FF304353FC9C8323FBB85303F8E
:10572C00DE3B2E3F4AEB2B3F1594293F5636273F45
:10573C0025D2243F9967223FCBF61F3FD17F1D3FD7
:10574C00C6021B3FC07F183FD9F6153F2A68133F8E
:10575C00CDD3103FDA390E3F6B9A0B3F9BF5083FC8
:10576C00824B063F3D9C033FE4E7003F275DFC3E38
:10577C00CBE0F63EEA5AF13EBBCBEB3E7533E63E50
:10578C004F92E03E80E8DA3E4136D53ECA7BCF3EB2
:10579C0053B9C93E15EFC33E491DBE3E2A44B83E1F
:1057AC00EF63B23ED47CAC3E128FA63EE59AA03E8F
:1057BC0086A09A3E32A0943E229A8E3E938E883ECC
:1057CC00C07D823ECCCF783E7F9A6C3E135C603EAF
:1057DC000115543EC2C5473ECF6E3B3EA2102F3E34
:1057EC00B5AB223E8340163E87CF093E73B2FA3DDD
:1057FC002FBCE13D36BDC83D80B6AF3D04A9963DFA
:10580C00752B7B3D2EFB483D2BC3163DB10AC93C85
:10581C00920E493C00000000920E49BCB10AC9BC72
:10582C002BC316BD2EFB48BD752B7BBD04A996BDA5
:10583C0080B6AFBD36BDC8BD2FBCE1BD73B2FABDDD
:10584C0087CF09BE834016BEB5AB22BEA2102FBEB9
:10585C00CF6E3BBEC2C547BE011554BE135C60BEC5
:10586C007F9A6CBECCCF78BEC07D82BE938E88BE34
:10587C00229A8EBE32A094BE86A09ABEE59AA0BE95
:10588C00128FA6BED47CACBEEF63B2BE2A44B8BEA7
:10589C00491DBEBE15EFC3BE53B9C9BECA7BCFBE30
:1058AC004136D5BE80E8DABE4F92E0BE7533E6BE17
:1058BC00BBCBEBBEEA5AF1BECBE0F6BE275DFCBE1D
:1058CC00E4E700BF3D9C03BF824B06BF9BF508BFBE
:1058DC006B9A0BBFDA390EBFCDD310BF2A6813BF3A
:1058EC00D9F615BFC07F18BFC6021BBFD17F1DBF25
:1058FC00CBF61FBF996722BF25D224BF563627BFD0
:10590C00159429BF4AEB2BBFDE3B2EBFBB8530BFA6
:10591C00C9C832BFF30435BF233A37BF426839BF19
:10592C003B8F3BBFF9AE3DBF67C73FBF70D841BF90
:10593C0001E243BF03E445BF65DE47BF12D149BF57
:10594C00F8BB4BBF029F4DBF207A4FBF3D4D51BF9F
:10595C00491853BF31DB54BFE59556BF534858BF68
:10596C006AF259BF1A945BBF532D5DBF05BE5EBF73
:10597C00214660BF97C561BF5A3C63BF59AA64BF3B
:10598C00880F66BFD86B67BF3CBF68BFA7096ABFEB
:10599C000C4B6BBF5E836CBF93B26DBF9ED86EBF5A
:1059AC0073F56FBF080971BF521372BF471473BFF1
:1059BC00DD0B74BF0BFA74BFC6DE75BF07BA76BFBA
:1059CC00C58B77BFF85378BF981279BF9DC779BF45
:1059DC0002737ABFBE147BBFCDAC7BBF283B7CBFB0
:1059EC00C9BF7CBFAC3A7DBFCCAB7DBF23137EBFA0
:1059FC00B0707EBF6DC47EBF580E7FBF6D4E7FBF33
:105A0C00AB847FBF0FB17FBF97D37FBF43EC7FBF0A
:105A1C0011FB7FBF000080BF11FB7FBF43EC7FBF3A
:105A2C0097D37FBF0FB17FBFAB847FBF6D4E7FBF5E
:105A3C00580E7FBF6DC47EBFB0707EBF23137EBF78
:105A4C00CCAB7DBFAC3A7DBFC9BF7CBF283B7CBF14
:105A5C00CDAC7BBFBE147BBF02737ABF9DC779BF31
:105A6C00981279BFF85378BFC58B77BF07BA76BF4A
:105A7C00C6DE75BF0BFA74BFDD0B74BF471473BF62
:105A8C00521372BF080971BF73F56FBF9ED86EBFFA
:105A9C0093B26DBF5E836CBF0C4B6BBFA7096ABF23
:105AAC003CBF68BFD86B67BF880F66BF59AA64BF7D
:105ABC005A3C63BF97C561BF214660BF05BE5EBF40
